{
  "address": "0xA51c1fc2f0D1a1b8494Ed1FE312d7C3a78Ed91C0",
  "abi": [
    {
      "inputs": [],
      "stateMutability": "nonpayable",
      "type": "constructor"
    },
    {
      "inputs": [],
      "name": "BEGIN_JSON",
      "outputs": [
        {
          "internalType": "string",
          "name": "",
          "type": "string"
        }
      ],
      "stateMutability": "view",
      "type": "function"
    },
    {
      "inputs": [
        {
          "internalType": "string",
          "name": "name",
          "type": "string"
        },
        {
          "internalType": "bool",
          "name": "omitQuotes",
          "type": "bool"
        }
      ],
      "name": "BEGIN_METADATA_VAR",
      "outputs": [
        {
          "internalType": "string",
          "name": "",
          "type": "string"
        }
      ],
      "stateMutability": "pure",
      "type": "function"
    },
    {
      "inputs": [],
      "name": "BEGIN_SCRIPT",
      "outputs": [
        {
          "internalType": "string",
          "name": "",
          "type": "string"
        }
      ],
      "stateMutability": "view",
      "type": "function"
    },
    {
      "inputs": [],
      "name": "BEGIN_SCRIPT_DATA",
      "outputs": [
        {
          "internalType": "string",
          "name": "",
          "type": "string"
        }
      ],
      "stateMutability": "view",
      "type": "function"
    },
    {
      "inputs": [],
      "name": "BEGIN_SCRIPT_DATA_COMPRESSED",
      "outputs": [
        {
          "internalType": "string",
          "name": "",
          "type": "string"
        }
      ],
      "stateMutability": "view",
      "type": "function"
    },
    {
      "inputs": [],
      "name": "BEGIN_SCRIPT_DATA_DEFER",
      "outputs": [
        {
          "internalType": "string",
          "name": "",
          "type": "string"
        }
      ],
      "stateMutability": "view",
      "type": "function"
    },
    {
      "inputs": [],
      "name": "END_JSON",
      "outputs": [
        {
          "internalType": "string",
          "name": "",
          "type": "string"
        }
      ],
      "stateMutability": "view",
      "type": "function"
    },
    {
      "inputs": [
        {
          "internalType": "bool",
          "name": "omitQuotes",
          "type": "bool"
        }
      ],
      "name": "END_METADATA_VAR",
      "outputs": [
        {
          "internalType": "string",
          "name": "",
          "type": "string"
        }
      ],
      "stateMutability": "pure",
      "type": "function"
    },
    {
      "inputs": [],
      "name": "END_SCRIPT",
      "outputs": [
        {
          "internalType": "string",
          "name": "",
          "type": "string"
        }
      ],
      "stateMutability": "view",
      "type": "function"
    },
    {
      "inputs": [],
      "name": "END_SCRIPT_DATA",
      "outputs": [
        {
          "internalType": "string",
          "name": "",
          "type": "string"
        }
      ],
      "stateMutability": "view",
      "type": "function"
    },
    {
      "inputs": [],
      "name": "END_SCRIPT_DATA_COMPRESSED",
      "outputs": [
        {
          "internalType": "string",
          "name": "",
          "type": "string"
        }
      ],
      "stateMutability": "view",
      "type": "function"
    },
    {
      "inputs": [],
      "name": "HTML_HEAD",
      "outputs": [
        {
          "internalType": "string",
          "name": "",
          "type": "string"
        }
      ],
      "stateMutability": "view",
      "type": "function"
    },
    {
      "inputs": [
        {
          "internalType": "string",
          "name": "name",
          "type": "string"
        },
        {
          "internalType": "string",
          "name": "value",
          "type": "string"
        },
        {
          "internalType": "bool",
          "name": "omitQuotes",
          "type": "bool"
        }
      ],
      "name": "SCRIPT_VAR",
      "outputs": [
        {
          "internalType": "string",
          "name": "",
          "type": "string"
        }
      ],
      "stateMutability": "pure",
      "type": "function"
    },
    {
      "inputs": [],
      "name": "base64Utils",
      "outputs": [
        {
          "internalType": "string",
          "name": "",
          "type": "string"
        }
      ],
      "stateMutability": "view",
      "type": "function"
    },
    {
      "inputs": [
        {
          "internalType": "address",
          "name": "chunk1",
          "type": "address"
        },
        {
          "internalType": "address",
          "name": "chunk2",
          "type": "address"
        }
      ],
      "name": "compile2",
      "outputs": [
        {
          "internalType": "string",
          "name": "",
          "type": "string"
        }
      ],
      "stateMutability": "view",
      "type": "function"
    },
    {
      "inputs": [
        {
          "internalType": "address",
          "name": "chunk1",
          "type": "address"
        },
        {
          "internalType": "address",
          "name": "chunk2",
          "type": "address"
        },
        {
          "internalType": "address",
          "name": "chunk3",
          "type": "address"
        }
      ],
      "name": "compile3",
      "outputs": [
        {
          "internalType": "string",
          "name": "",
          "type": "string"
        }
      ],
      "stateMutability": "view",
      "type": "function"
    },
    {
      "inputs": [
        {
          "internalType": "address",
          "name": "chunk1",
          "type": "address"
        },
        {
          "internalType": "address",
          "name": "chunk2",
          "type": "address"
        },
        {
          "internalType": "address",
          "name": "chunk3",
          "type": "address"
        },
        {
          "internalType": "address",
          "name": "chunk4",
          "type": "address"
        }
      ],
      "name": "compile4",
      "outputs": [
        {
          "internalType": "string",
          "name": "",
          "type": "string"
        }
      ],
      "stateMutability": "view",
      "type": "function"
    },
    {
      "inputs": [
        {
          "internalType": "address",
          "name": "chunk1",
          "type": "address"
        },
        {
          "internalType": "address",
          "name": "chunk2",
          "type": "address"
        },
        {
          "internalType": "address",
          "name": "chunk3",
          "type": "address"
        },
        {
          "internalType": "address",
          "name": "chunk4",
          "type": "address"
        },
        {
          "internalType": "address",
          "name": "chunk5",
          "type": "address"
        }
      ],
      "name": "compile5",
      "outputs": [
        {
          "internalType": "string",
          "name": "",
          "type": "string"
        }
      ],
      "stateMutability": "view",
      "type": "function"
    },
    {
      "inputs": [
        {
          "internalType": "address",
          "name": "chunk1",
          "type": "address"
        },
        {
          "internalType": "address",
          "name": "chunk2",
          "type": "address"
        },
        {
          "internalType": "address",
          "name": "chunk3",
          "type": "address"
        },
        {
          "internalType": "address",
          "name": "chunk4",
          "type": "address"
        },
        {
          "internalType": "address",
          "name": "chunk5",
          "type": "address"
        },
        {
          "internalType": "address",
          "name": "chunk6",
          "type": "address"
        }
      ],
      "name": "compile6",
      "outputs": [
        {
          "internalType": "string",
          "name": "",
          "type": "string"
        }
      ],
      "stateMutability": "view",
      "type": "function"
    },
    {
      "inputs": [
        {
          "internalType": "address",
          "name": "chunk1",
          "type": "address"
        },
        {
          "internalType": "address",
          "name": "chunk2",
          "type": "address"
        },
        {
          "internalType": "address",
          "name": "chunk3",
          "type": "address"
        },
        {
          "internalType": "address",
          "name": "chunk4",
          "type": "address"
        },
        {
          "internalType": "address",
          "name": "chunk5",
          "type": "address"
        },
        {
          "internalType": "address",
          "name": "chunk6",
          "type": "address"
        },
        {
          "internalType": "address",
          "name": "chunk7",
          "type": "address"
        }
      ],
      "name": "compile7",
      "outputs": [
        {
          "internalType": "string",
          "name": "",
          "type": "string"
        }
      ],
      "stateMutability": "view",
      "type": "function"
    },
    {
      "inputs": [
        {
          "internalType": "address",
          "name": "chunk1",
          "type": "address"
        },
        {
          "internalType": "address",
          "name": "chunk2",
          "type": "address"
        },
        {
          "internalType": "address",
          "name": "chunk3",
          "type": "address"
        },
        {
          "internalType": "address",
          "name": "chunk4",
          "type": "address"
        },
        {
          "internalType": "address",
          "name": "chunk5",
          "type": "address"
        },
        {
          "internalType": "address",
          "name": "chunk6",
          "type": "address"
        },
        {
          "internalType": "address",
          "name": "chunk7",
          "type": "address"
        },
        {
          "internalType": "address",
          "name": "chunk8",
          "type": "address"
        }
      ],
      "name": "compile8",
      "outputs": [
        {
          "internalType": "string",
          "name": "",
          "type": "string"
        }
      ],
      "stateMutability": "view",
      "type": "function"
    },
    {
      "inputs": [
        {
          "internalType": "address",
          "name": "chunk1",
          "type": "address"
        },
        {
          "internalType": "address",
          "name": "chunk2",
          "type": "address"
        },
        {
          "internalType": "address",
          "name": "chunk3",
          "type": "address"
        },
        {
          "internalType": "address",
          "name": "chunk4",
          "type": "address"
        },
        {
          "internalType": "address",
          "name": "chunk5",
          "type": "address"
        },
        {
          "internalType": "address",
          "name": "chunk6",
          "type": "address"
        },
        {
          "internalType": "address",
          "name": "chunk7",
          "type": "address"
        },
        {
          "internalType": "address",
          "name": "chunk8",
          "type": "address"
        },
        {
          "internalType": "address",
          "name": "chunk9",
          "type": "address"
        }
      ],
      "name": "compile9",
      "outputs": [
        {
          "internalType": "string",
          "name": "",
          "type": "string"
        }
      ],
      "stateMutability": "view",
      "type": "function"
    },
    {
      "inputs": [],
      "name": "fflate",
      "outputs": [
        {
          "internalType": "string",
          "name": "",
          "type": "string"
        }
      ],
      "stateMutability": "view",
      "type": "function"
    },
    {
      "inputs": [],
      "name": "owner",
      "outputs": [
        {
          "internalType": "address",
          "name": "",
          "type": "address"
        }
      ],
      "stateMutability": "view",
      "type": "function"
    },
    {
      "inputs": [
        {
          "internalType": "address",
          "name": "chunk1",
          "type": "address"
        },
        {
          "internalType": "address",
          "name": "chunk2",
          "type": "address"
        }
      ],
      "name": "setFFlateAddress",
      "outputs": [],
      "stateMutability": "nonpayable",
      "type": "function"
    }
  ],
  "transactionHash": "0x24f1b02f2f137d5434db31dbf748291fefa8236694af0247be8694d466aee991",
  "args": [],
  "numDeployments": 1,
  "solcInputHash": "cf4f5b6d5eaf9388b3128a8b1a0f4f03",
  "bytecode": "0x60a060405234801561001057600080fd5b50336080526080516137ff610037600039600081816102f701526115ef01526137ff6000f3fe608060405234801561001057600080fd5b50600436106101735760003560e01c8063679f868d116100de578063a905676611610097578063c9f1b61c11610071578063c9f1b61c146103a3578063dd852008146103df578063ebe02405146103f2578063fdcdd4b41461041457600080fd5b8063a905676614610341578063ab6f484d14610354578063bae75c301461039057600080fd5b8063679f868d1461029b5780636d33aa67146102ae57806389fbf2b0146102dd5780638da5cb5b146102f25780639595b59414610331578063a08cadb71461033957600080fd5b806347f4388c1161013057806347f4388c1461023f578063531434d214610252578063589dba3a14610265578063597422e1146102785780636218780f1461028057806364bdce1a1461028857600080fd5b80630f2f968e14610178578063167671b8146101a15780632781bde2146101dd57806329b95785146102115780632b70503d146102245780633380c2561461022c575b600080fd5b61018b610186366004611b3b565b61041c565b6040516101989190611be5565b60405180910390f35b61018b6040518060400160405280601981526020017f646174613a6170706c69636174696f6e2f6a736f6e2c2537420000000000000081525081565b61018b6040518060400160405280601581526020017425323533432532353246736372697074253235334560581b81525081565b61018b61021f366004611c18565b610737565b61018b61097c565b61018b61023a366004611c7d565b610aa3565b61018b61024d366004611de9565b610e2a565b61018b610260366004611e37565b610e82565b61018b610273366004611e8b565b611060565b61018b611451565b61018b61146d565b61018b610296366004611f33565b611499565b61018b6102a9366004611f4e565b6114e2565b61018b6040518060400160405280601081526020016f2532353343736372697074253235334560801b81525081565b6102f06102eb366004611f4e565b6115e4565b005b6103197f000000000000000000000000000000000000000000000000000000000000000081565b6040516001600160a01b039091168152602001610198565b61018b611647565b61018b611666565b61018b61034f366004611f78565b611682565b61018b6040518060400160405280601d81526020017f253235334373637269707425323532307372632532353344253235323700000081525081565b61018b61039e366004611fec565b611933565b61018b6040518060400160405280601f81526020017f253235323725323533452532353343253235324673637269707425323533450081525081565b61018b6103ed36600461202f565b611aa4565b61018b60405180604001604052806003815260200162094dd160ea1b81525081565b61018b611b00565b604080516339ea509d60e11b8152905160609189918991899189918991899189916001600160a01b038916916373d4a13a9160048083019260009291908290030181865afa158015610472573d6000803e3d6000fd5b505050506040513d6000823e601f3d908101601f1916820160405261049a919081019061209a565b866001600160a01b03166373d4a13a6040518163ffffffff1660e01b8152600401600060405180830381865afa1580156104d8573d6000803e3d6000fd5b505050506040513d6000823e601f3d908101601f19168201604052610500919081019061209a565b866001600160a01b03166373d4a13a6040518163ffffffff1660e01b8152600401600060405180830381865afa15801561053e573d6000803e3d6000fd5b505050506040513d6000823e601f3d908101601f19168201604052610566919081019061209a565b866001600160a01b03166373d4a13a6040518163ffffffff1660e01b8152600401600060405180830381865afa1580156105a4573d6000803e3d6000fd5b505050506040513d6000823e601f3d908101601f191682016040526105cc919081019061209a565b866001600160a01b03166373d4a13a6040518163ffffffff1660e01b8152600401600060405180830381865afa15801561060a573d6000803e3d6000fd5b505050506040513d6000823e601f3d908101601f19168201604052610632919081019061209a565b866001600160a01b03166373d4a13a6040518163ffffffff1660e01b8152600401600060405180830381865afa158015610670573d6000803e3d6000fd5b505050506040513d6000823e601f3d908101601f19168201604052610698919081019061209a565b866001600160a01b03166373d4a13a6040518163ffffffff1660e01b8152600401600060405180830381865afa1580156106d6573d6000803e3d6000fd5b505050506040513d6000823e601f3d908101601f191682016040526106fe919081019061209a565b6040516020016107149796959493929190612111565b604051602081830303815290604052975050505050505050979650505050505050565b604080516339ea509d60e11b81529051606091879187918791879187916001600160a01b038716916373d4a13a9160048083019260009291908290030181865afa158015610789573d6000803e3d6000fd5b505050506040513d6000823e601f3d908101601f191682016040526107b1919081019061209a565b846001600160a01b03166373d4a13a6040518163ffffffff1660e01b8152600401600060405180830381865afa1580156107ef573d6000803e3d6000fd5b505050506040513d6000823e601f3d908101601f19168201604052610817919081019061209a565b846001600160a01b03166373d4a13a6040518163ffffffff1660e01b8152600401600060405180830381865afa158015610855573d6000803e3d6000fd5b505050506040513d6000823e601f3d908101601f1916820160405261087d919081019061209a565b846001600160a01b03166373d4a13a6040518163ffffffff1660e01b8152600401600060405180830381865afa1580156108bb573d6000803e3d6000fd5b505050506040513d6000823e601f3d908101601f191682016040526108e3919081019061209a565b846001600160a01b03166373d4a13a6040518163ffffffff1660e01b8152600401600060405180830381865afa158015610921573d6000803e3d6000fd5b505050506040513d6000823e601f3d908101601f19168201604052610949919081019061209a565b60405160200161095d9594939291906121a3565b6040516020818303038152906040529550505050505095945050505050565b60606040518060400160405280601d81526020017f253235334373637269707425323532307372632532353344253235323700000081525060405180610f200160405280610ef081526020016128b3610ef091396040518060400160405280601f81526020017f25323532372532353345253235334325323532467363726970742532353345008152506040518060400160405280601d81526020017f2532353343736372697074253235323073726325323533442532353237000000815250610a4461146d565b6040518060400160405280601f81526020017f2532353237253235334525323533432532353246736372697074253235334500815250604051602001610a8f9695949392919061220e565b604051602081830303815290604052905090565b604080516339ea509d60e11b815290516060918a918a918a918a918a918a918a918a916001600160a01b038a16916373d4a13a916004808201926000929091908290030181865afa158015610afc573d6000803e3d6000fd5b505050506040513d6000823e601f3d908101601f19168201604052610b24919081019061209a565b876001600160a01b03166373d4a13a6040518163ffffffff1660e01b8152600401600060405180830381865afa158015610b62573d6000803e3d6000fd5b505050506040513d6000823e601f3d908101601f19168201604052610b8a919081019061209a565b876001600160a01b03166373d4a13a6040518163ffffffff1660e01b8152600401600060405180830381865afa158015610bc8573d6000803e3d6000fd5b505050506040513d6000823e601f3d908101601f19168201604052610bf0919081019061209a565b876001600160a01b03166373d4a13a6040518163ffffffff1660e01b8152600401600060405180830381865afa158015610c2e573d6000803e3d6000fd5b505050506040513d6000823e601f3d908101601f19168201604052610c56919081019061209a565b876001600160a01b03166373d4a13a6040518163ffffffff1660e01b8152600401600060405180830381865afa158015610c94573d6000803e3d6000fd5b505050506040513d6000823e601f3d908101601f19168201604052610cbc919081019061209a565b876001600160a01b03166373d4a13a6040518163ffffffff1660e01b8152600401600060405180830381865afa158015610cfa573d6000803e3d6000fd5b505050506040513d6000823e601f3d908101601f19168201604052610d22919081019061209a565b876001600160a01b03166373d4a13a6040518163ffffffff1660e01b8152600401600060405180830381865afa158015610d60573d6000803e3d6000fd5b505050506040513d6000823e601f3d908101601f19168201604052610d88919081019061209a565b876001600160a01b03166373d4a13a6040518163ffffffff1660e01b8152600401600060405180830381865afa158015610dc6573d6000803e3d6000fd5b505050506040513d6000823e601f3d908101601f19168201604052610dee919081019061209a565b604051602001610e059897969594939291906122b4565b6040516020818303038152906040529850505050505050505098975050505050505050565b60608115610e595782604051602001610e439190612359565b6040516020818303038152906040529050610e7c565b82604051602001610e6a9190612394565b60405160208183030381529060405290505b92915050565b60606000859050600085905060008590506000859050836001600160a01b03166373d4a13a6040518163ffffffff1660e01b8152600401600060405180830381865afa158015610ed6573d6000803e3d6000fd5b505050506040513d6000823e601f3d908101601f19168201604052610efe919081019061209a565b836001600160a01b03166373d4a13a6040518163ffffffff1660e01b8152600401600060405180830381865afa158015610f3c573d6000803e3d6000fd5b505050506040513d6000823e601f3d908101601f19168201604052610f64919081019061209a565b836001600160a01b03166373d4a13a6040518163ffffffff1660e01b8152600401600060405180830381865afa158015610fa2573d6000803e3d6000fd5b505050506040513d6000823e601f3d908101601f19168201604052610fca919081019061209a565b836001600160a01b03166373d4a13a6040518163ffffffff1660e01b8152600401600060405180830381865afa158015611008573d6000803e3d6000fd5b505050506040513d6000823e601f3d908101601f19168201604052611030919081019061209a565b60405160200161104394939291906123d2565b604051602081830303815290604052945050505050949350505050565b604080516339ea509d60e11b815290516060918b918b918b918b918b918b918b918b918b916001600160a01b038b16916373d4a13a9160048083019260009291908290030181865afa1580156110ba573d6000803e3d6000fd5b505050506040513d6000823e601f3d908101601f191682016040526110e2919081019061209a565b886001600160a01b03166373d4a13a6040518163ffffffff1660e01b8152600401600060405180830381865afa158015611120573d6000803e3d6000fd5b505050506040513d6000823e601f3d908101601f19168201604052611148919081019061209a565b886001600160a01b03166373d4a13a6040518163ffffffff1660e01b8152600401600060405180830381865afa158015611186573d6000803e3d6000fd5b505050506040513d6000823e601f3d908101601f191682016040526111ae919081019061209a565b886001600160a01b03166373d4a13a6040518163ffffffff1660e01b8152600401600060405180830381865afa1580156111ec573d6000803e3d6000fd5b505050506040513d6000823e601f3d908101601f19168201604052611214919081019061209a565b886001600160a01b03166373d4a13a6040518163ffffffff1660e01b8152600401600060405180830381865afa158015611252573d6000803e3d6000fd5b505050506040513d6000823e601f3d908101601f1916820160405261127a919081019061209a565b886001600160a01b03166373d4a13a6040518163ffffffff1660e01b8152600401600060405180830381865afa1580156112b8573d6000803e3d6000fd5b505050506040513d6000823e601f3d908101601f191682016040526112e0919081019061209a565b886001600160a01b03166373d4a13a6040518163ffffffff1660e01b8152600401600060405180830381865afa15801561131e573d6000803e3d6000fd5b505050506040513d6000823e601f3d908101601f19168201604052611346919081019061209a565b886001600160a01b03166373d4a13a6040518163ffffffff1660e01b8152600401600060405180830381865afa158015611384573d6000803e3d6000fd5b505050506040513d6000823e601f3d908101601f191682016040526113ac919081019061209a565b886001600160a01b03166373d4a13a6040518163ffffffff1660e01b8152600401600060405180830381865afa1580156113ea573d6000803e3d6000fd5b505050506040513d6000823e601f3d908101601f19168201604052611412919081019061209a565b60405160200161142a99989796959493929190612429565b60405160208183030381529060405299505050505050505050509998505050505050505050565b6040518060800160405280604281526020016128716042913981565b606061149460008001546001600160a01b03166000600101546001600160a01b03166114e2565b905090565b606081156114c057505060408051808201909152600381526225324360e81b602082015290565b505060408051808201909152600681526525323225324360d01b602082015290565b606060008390506000839050816001600160a01b03166373d4a13a6040518163ffffffff1660e01b8152600401600060405180830381865afa15801561152c573d6000803e3d6000fd5b505050506040513d6000823e601f3d908101601f19168201604052611554919081019061209a565b816001600160a01b03166373d4a13a6040518163ffffffff1660e01b8152600401600060405180830381865afa158015611592573d6000803e3d6000fd5b505050506040513d6000823e601f3d908101601f191682016040526115ba919081019061209a565b6040516020016115cb9291906124ea565b6040516020818303038152906040529250505092915050565b336001600160a01b037f0000000000000000000000000000000000000000000000000000000000000000161461161957600080fd5b600080546001600160a01b039384166001600160a01b03199182161790915560018054929093169116179055565b6040518061022001604052806101f4815260200161267d6101f4913981565b6040518060600160405280602781526020016137a36027913981565b604080516339ea509d60e11b815290516060918891889188918891889188916001600160a01b038816916373d4a13a916004808201926000929091908290030181865afa1580156116d7573d6000803e3d6000fd5b505050506040513d6000823e601f3d908101601f191682016040526116ff919081019061209a565b856001600160a01b03166373d4a13a6040518163ffffffff1660e01b8152600401600060405180830381865afa15801561173d573d6000803e3d6000fd5b505050506040513d6000823e601f3d908101601f19168201604052611765919081019061209a565b856001600160a01b03166373d4a13a6040518163ffffffff1660e01b8152600401600060405180830381865afa1580156117a3573d6000803e3d6000fd5b505050506040513d6000823e601f3d908101601f191682016040526117cb919081019061209a565b856001600160a01b03166373d4a13a6040518163ffffffff1660e01b8152600401600060405180830381865afa158015611809573d6000803e3d6000fd5b505050506040513d6000823e601f3d908101601f19168201604052611831919081019061209a565b856001600160a01b03166373d4a13a6040518163ffffffff1660e01b8152600401600060405180830381865afa15801561186f573d6000803e3d6000fd5b505050506040513d6000823e601f3d908101601f19168201604052611897919081019061209a565b856001600160a01b03166373d4a13a6040518163ffffffff1660e01b8152600401600060405180830381865afa1580156118d5573d6000803e3d6000fd5b505050506040513d6000823e601f3d908101601f191682016040526118fd919081019061209a565b60405160200161191296959493929190612519565b60405160208183030381529060405296505050505050509695505050505050565b6060600084905060008490506000849050826001600160a01b03166373d4a13a6040518163ffffffff1660e01b8152600401600060405180830381865afa158015611982573d6000803e3d6000fd5b505050506040513d6000823e601f3d908101601f191682016040526119aa919081019061209a565b826001600160a01b03166373d4a13a6040518163ffffffff1660e01b8152600401600060405180830381865afa1580156119e8573d6000803e3d6000fd5b505050506040513d6000823e601f3d908101601f19168201604052611a10919081019061209a565b826001600160a01b03166373d4a13a6040518163ffffffff1660e01b8152600401600060405180830381865afa158015611a4e573d6000803e3d6000fd5b505050506040513d6000823e601f3d908101601f19168201604052611a76919081019061209a565b604051602001611a8893929190612563565b60405160208183030381529060405293505050505b9392505050565b60608115611ad5578383604051602001611abf9291906125a6565b6040516020818303038152906040529050611a9d565b8383604051602001611ae892919061260c565b60405160208183030381529060405290509392505050565b60405180610f200160405280610ef081526020016128b3610ef0913981565b80356001600160a01b0381168114611b3657600080fd5b919050565b600080600080600080600060e0888a031215611b5657600080fd5b611b5f88611b1f565b9650611b6d60208901611b1f565b9550611b7b60408901611b1f565b9450611b8960608901611b1f565b9350611b9760808901611b1f565b9250611ba560a08901611b1f565b9150611bb360c08901611b1f565b905092959891949750929550565b60005b83811015611bdc578181015183820152602001611bc4565b50506000910152565b6020815260008251806020840152611c04816040850160208701611bc1565b601f01601f19169190910160400192915050565b600080600080600060a08688031215611c3057600080fd5b611c3986611b1f565b9450611c4760208701611b1f565b9350611c5560408701611b1f565b9250611c6360608701611b1f565b9150611c7160808701611b1f565b90509295509295909350565b600080600080600080600080610100898b031215611c9a57600080fd5b611ca389611b1f565b9750611cb160208a01611b1f565b9650611cbf60408a01611b1f565b9550611ccd60608a01611b1f565b9450611cdb60808a01611b1f565b9350611ce960a08a01611b1f565b9250611cf760c08a01611b1f565b9150611d0560e08a01611b1f565b90509295985092959890939650565b634e487b7160e01b600052604160045260246000fd5b604051601f8201601f1916810167ffffffffffffffff81118282101715611d5357611d53611d14565b604052919050565b600067ffffffffffffffff821115611d7557611d75611d14565b50601f01601f191660200190565b600082601f830112611d9457600080fd5b8135611da7611da282611d5b565b611d2a565b818152846020838601011115611dbc57600080fd5b816020850160208301376000918101602001919091529392505050565b80358015158114611b3657600080fd5b60008060408385031215611dfc57600080fd5b823567ffffffffffffffff811115611e1357600080fd5b611e1f85828601611d83565b925050611e2e60208401611dd9565b90509250929050565b60008060008060808587031215611e4d57600080fd5b611e5685611b1f565b9350611e6460208601611b1f565b9250611e7260408601611b1f565b9150611e8060608601611b1f565b905092959194509250565b60008060008060008060008060006101208a8c031215611eaa57600080fd5b611eb38a611b1f565b9850611ec160208b01611b1f565b9750611ecf60408b01611b1f565b9650611edd60608b01611b1f565b9550611eeb60808b01611b1f565b9450611ef960a08b01611b1f565b9350611f0760c08b01611b1f565b9250611f1560e08b01611b1f565b9150611f246101008b01611b1f565b90509295985092959850929598565b600060208284031215611f4557600080fd5b611a9d82611dd9565b60008060408385031215611f6157600080fd5b611f6a83611b1f565b9150611e2e60208401611b1f565b60008060008060008060c08789031215611f9157600080fd5b611f9a87611b1f565b9550611fa860208801611b1f565b9450611fb660408801611b1f565b9350611fc460608801611b1f565b9250611fd260808801611b1f565b9150611fe060a08801611b1f565b90509295509295509295565b60008060006060848603121561200157600080fd5b61200a84611b1f565b925061201860208501611b1f565b915061202660408501611b1f565b90509250925092565b60008060006060848603121561204457600080fd5b833567ffffffffffffffff8082111561205c57600080fd5b61206887838801611d83565b9450602086013591508082111561207e57600080fd5b5061208b86828701611d83565b92505061202660408501611dd9565b6000602082840312156120ac57600080fd5b815167ffffffffffffffff8111156120c357600080fd5b8201601f810184136120d457600080fd5b80516120e2611da282611d5b565b8181528560208385010111156120f757600080fd5b612108826020830160208601611bc1565b95945050505050565b6000885160206121248285838e01611bc1565b8951918401916121378184848e01611bc1565b89519201916121498184848d01611bc1565b885192019161215b8184848c01611bc1565b875192019161216d8184848b01611bc1565b865192019161217f8184848a01611bc1565b85519201916121918184848901611bc1565b919091019a9950505050505050505050565b600086516121b5818460208b01611bc1565b8651908301906121c9818360208b01611bc1565b86519101906121dc818360208a01611bc1565b85519101906121ef818360208901611bc1565b8451910190612202818360208801611bc1565b01979650505050505050565b74646174612533417465787425324668746d6c25324360581b815260008751602061223f8260158601838d01611bc1565b8851918401916122558160158501848d01611bc1565b885192019161226a8160158501848c01611bc1565b875192016015019161227f8184848b01611bc1565b86519201916122918184848a01611bc1565b85519201916122a38184848901611bc1565b919091019998505050505050505050565b6000895160206122c78285838f01611bc1565b8a51918401916122da8184848f01611bc1565b8a519201916122ec8184848e01611bc1565b89519201916122fe8184848d01611bc1565b88519201916123108184848c01611bc1565b87519201916123228184848b01611bc1565b86519201916123348184848a01611bc1565b85519201916123468184848901611bc1565b919091019b9a5050505050505050505050565b6212991960e91b815260008251612377816003850160208701611bc1565b6525323225334160d01b6003939091019283015250600901919050565b6212991960e91b8152600082516123b2816003850160208701611bc1565b681299191299a092991960b91b6003939091019283015250600c01919050565b600085516123e4818460208a01611bc1565b8551908301906123f8818360208a01611bc1565b855191019061240b818360208901611bc1565b845191019061241e818360208801611bc1565b019695505050505050565b60008a5161243b818460208f01611bc1565b8a5161244d8183860160208f01611bc1565b8a519184010190612462818360208e01611bc1565b89516124748183850160208e01611bc1565b895192909101019061248a818360208c01611bc1565b875161249c8183850160208c01611bc1565b87519290910101906124b2818360208a01611bc1565b85516124c48183850160208a01611bc1565b85519290910101906124da818360208801611bc1565b019b9a5050505050505050505050565b600083516124fc818460208801611bc1565b835190830190612510818360208801611bc1565b01949350505050565b60008751602061252c8285838d01611bc1565b88519184019161253f8184848d01611bc1565b88519201916125518184848c01611bc1565b875192019161227f8184848b01611bc1565b60008451612575818460208901611bc1565b845190830190612589818360208901611bc1565b845191019061259c818360208801611bc1565b0195945050505050565b67076617225323532360c41b8152600083516125c9816008850160208801611bc1565b64094c8d4cd160da1b60089184019182015283516125ee81600d840160208801611bc1565b6412991a99a160d91b600d9290910191820152601201949350505050565b67076617225323532360c41b81526000835161262f816008850160208801611bc1565b6912991a99a212991a991960b11b6008918401918201528351612659816012840160208801611bc1565b6912991a991912991a99a160b11b60129290910191820152601c0194935050505056fe25323532372532353239253235334225323532307661722532353230756e7a697070656425323532302532353344253235323066666c6174652e67756e7a697053796e6325323532386461746125323532392532353342253235323076617225323532307465787425323532302532353344253235323066666c6174652e73747246726f6d55382532353238756e7a6970706564253235323925323533422532353230766172253235323062363425323532302532353344253235323062746f612532353238746578742532353239253235334225323532307661722532353230736372697074253235323025323533442532353230646f63756d656e742e637265617465456c656d656e742532353238253235323773637269707425323532372532353239253235334225323532307363726970742e736574417474726962757465253235323825323532377372632532353237253235324325323532376461746125323533417465787425323532466a617661736372697074253235334262617365363425323532432532353237253235323025323532422532353230623634253235323925323533422532353230646f63756d656e742e686561642e617070656e644368696c6425323532387363726970742532353239253235334225323533432532353246736372697074253235334525323533437363726970742532353345766172253235323064617461253235323025323533442532353230626173653634546f4279746573253235323825323532376461746125323533417465787425323532466a617661736372697074253235334262617365363425323532435932397563335167596d467a5a54593059574a6a4944306757776f6749434a4249697767496b49694c4341695179497349434a4549697767496b55694c4341695269497349434a4849697767496b67694c4341695353497349434a4b49697767496b73694c4341695443497349434a4e4969774b494341695469497349434a5049697767496c41694c4341695553497349434a5349697767496c4d694c4341695643497349434a5649697767496c59694c4341695679497349434a5949697767496c6b694c4341695769497343694167496d45694c4341695969497349434a6a49697767496d51694c4341695a53497349434a6d49697767496d63694c4341696143497349434a7049697767496d6f694c4341696179497349434a7349697767496d30694c416f6749434a7549697767496d38694c4341696343497349434a7849697767496e49694c4341696379497349434a3049697767496e55694c4341696469497349434a3349697767496e67694c4341696553497349434a364969774b494341694d4349734943497849697767496a49694c4341694d7949734943493049697767496a55694c4341694e6949734943493349697767496a67694c4341694f534973494349724969776749693869436c30374367706a6232357a6443426959584e6c4e6a526a6232526c637941394946734b494341794e545573494449314e5377674d6a55314c4341794e545573494449314e5377674d6a55314c4341794e545573494449314e5377674d6a55314c4341794e545573494449314e5377674d6a55314c4341794e545573494449314e5377674d6a55314c4341794e545573436941674d6a55314c4341794e545573494449314e5377674d6a55314c4341794e545573494449314e5377674d6a55314c4341794e545573494449314e5377674d6a55314c4341794e545573494449314e5377674d6a55314c4341794e545573494449314e5377674d6a55314c416f67494449314e5377674d6a55314c4341794e545573494449314e5377674d6a55314c4341794e545573494449314e5377674d6a55314c4341794e545573494449314e5377674d6a55314c4341324d6977674d6a55314c4341794e545573494449314e5377674e6a4d73436941674e5449734944557a4c4341314e4377674e545573494455324c4341314e7977674e546773494455354c4341324d4377674e6a4573494449314e5377674d6a55314c4341794e54557349444173494449314e5377674d6a55314c416f67494449314e5377674d4377674d5377674d6977674d7977674e4377674e5377674e6977674e7977674f4377674f5377674d544173494445784c4341784d6977674d544d73494445304c416f67494445314c4341784e6977674d546373494445344c4341784f5377674d6a4173494449784c4341794d6977674d6a4d73494449304c4341794e5377674d6a55314c4341794e545573494449314e5377674d6a55314c4341794e545573436941674d6a55314c4341794e6977674d6a6373494449344c4341794f5377674d7a417349444d784c43417a4d6977674d7a4d7349444d304c43417a4e5377674d7a597349444d334c43417a4f4377674d7a6b73494451774c416f67494451784c4341304d6977674e444d73494451304c4341304e5377674e445973494451334c4341304f4377674e446b73494455774c4341314d5170644f776f4b5a6e567559335270623234675a325630516d467a5a5459305132396b5a53686a614746795132396b5a536b6765776f6749476c6d4943686a614746795132396b5a534125323532425053426959584e6c4e6a526a6232526c637935735a57356e644767704948734b494341674948526f636d39334947356c64794246636e4a766369676956573568596d786c4948527649484268636e4e6c49474a68633255324e43427a64484a70626d637549696b374369416766516f6749474e76626e4e3049474e765a4755675053426959584e6c4e6a526a6232526c6331746a614746795132396b5a56303743694167615759674b474e765a47556750543039494449314e536b6765776f67494341676447687962336367626d563349455679636d39794b434a56626d466962475567644738676347467963325567596d467a5a54593049484e30636d6c755a7934694b54734b4943423943694167636d563064584a7549474e765a475537436e304b436d5a31626d4e306157397549474a356447567a5647394359584e6c4e6a516f596e6c305a584d704948734b494342735a585167636d567a64577830494430674a79637349476b7349477767505342696558526c637935735a57356e64476737436941675a6d397949436870494430674d6a7367615341384947773749476b674b7a30674d796b6765776f6749434167636d567a645778304943733949474a68633255324e474669593174696558526c63317470494330674d6c3067506a34674d6c303743694167494342795a584e31624851674b7a3067596d467a5a54593059574a6a5779676f596e6c305a584e626153417449444a64494359674d4867774d796b67504477674e436b676643416f596e6c305a584e6261534174494446644944342532353242494451705854734b4943416749484a6c63335673644341725053426959584e6c4e6a5268596d4e624b4368696558526c63317470494330674d5630674a694177654442474b534138504341794b534238494368696558526c633174705853412532353242506941324b56303743694167494342795a584e31624851674b7a3067596d467a5a54593059574a6a57324a356447567a57326c64494359674d48677a526c30374369416766516f6749476c6d494368704944303950534273494373674d536b67657941764c7941784947396a6447563049486c6c6443423062794233636d6c305a516f6749434167636d567a645778304943733949474a68633255324e474669593174696558526c63317470494330674d6c3067506a34674d6c303743694167494342795a584e31624851674b7a3067596d467a5a54593059574a6a577968696558526c63317470494330674d6c30674a6941776544417a4b534138504341305854734b4943416749484a6c633356736443417250534169505430694f776f674948304b494342705a69416f615341395054306762436b67657941764c7941794947396a64475630637942355a5851676447386764334a706447554b4943416749484a6c63335673644341725053426959584e6c4e6a5268596d4e62596e6c305a584e626153417449444a64494434253235324249444a644f776f6749434167636d567a645778304943733949474a68633255324e4746695931736f4b474a356447567a57326b674c5341795853416d494442344d444d704944773849445170494877674b474a356447567a57326b674c5341785853412532353242506941304b56303743694167494342795a584e31624851674b7a3067596d467a5a54593059574a6a577968696558526c63317470494330674d5630674a694177654442474b534138504341795854734b4943416749484a6c633356736443417250534169505349374369416766516f6749484a6c64485679626942795a584e3162485137436e304b436d5a31626d4e306157397549474a68633255324e465276516e6c305a584d6f633352794b53423743694167615759674b484e30636935735a57356e644767674a53413049434539505341774b534237436941674943423061484a76647942755a58636752584a796233496f496c567559574a735a5342306279427759584a7a5a53426959584e6c4e6a5167633352796157356e4c6949704f776f674948304b4943426a6232357a64434270626d526c6543413949484e3063693570626d526c6545396d4b43493949696b3743694167615759674b476c755a47563449434539505341744d53416d4a694270626d526c6543413849484e30636935735a57356e644767674c5341794b534237436941674943423061484a76647942755a58636752584a796233496f496c567559574a735a5342306279427759584a7a5a53426959584e6c4e6a5167633352796157356e4c6949704f776f674948304b494342735a58516762576c7a63326c755a30396a644756306379413949484e306369356c626d527a56326c3061436769505430694b53412532353246494449674f69427a644849755a57356b633164706447676f496a30694b53412532353246494445674f6941774c416f67494341676269413949484e30636935735a57356e6447677343694167494342795a584e3162485167505342755a58636756576c7564446842636e4a686553677a49436f674b4734674c7941304b536b73436941674943426964575a6d5a584937436941675a6d3979494368735a585167615341394944417349476f67505341774f79427049447767626a736761534172505341304c4342714943733949444d704948734b4943416749474a315a6d5a6c6369413943694167494341674947646c64454a68633255324e454e765a47556f633352794c6d4e6f59584a446232526c5158516f61536b7049447738494445344948774b49434167494341675a325630516d467a5a5459305132396b5a53687a6448497559326868636b4e765a47564264436870494373674d536b7049447738494445794948774b49434167494341675a325630516d467a5a5459305132396b5a53687a6448497559326868636b4e765a47564264436870494373674d696b70494477384944596766416f67494341674943426e5a58524359584e6c4e6a52446232526c4b484e306369356a614746795132396b5a5546304b476b674b79417a4b536b3743694167494342795a584e3162485262616c30675053426964575a6d5a584967506a34674d54593743694167494342795a584e31624852626169417249444664494430674b474a315a6d5a6c6369412532353242506941344b53416d49444234526b593743694167494342795a584e31624852626169417249444a6449443067596e566d5a6d5679494359674d486847526a734b4943423943694167636d563064584a7549484a6c633356736443357a64574a68636e4a68655367774c4342795a584e3162485175624756755a33526f4943306762576c7a63326c755a30396a6447563063796b37436e302532353344253235334373637269707425323532306465666572253235323073726325323533442532353237a2646970667358221220501bfacf4ed88aeaf2c6a30eeffa1a894e2ecbcc9f99dfb2b870d2a455a325ac64736f6c63430008180033",
  "devdoc": {
    "kind": "dev",
    "methods": {},
    "version": 1
  },
  "userdoc": {
    "kind": "user",
    "methods": {},
    "version": 1
  },
  "storageLayout": {
    "storage": [
      {
        "astId": 1182,
        "contract": "contracts/DataChunkCompilerV2.sol:DataChunkCompilerV2",
        "label": "fflateAddresses",
        "offset": 0,
        "slot": "0",
        "type": "t_array(t_address)2_storage"
      }
    ],
    "types": {
      "t_address": {
        "encoding": "inplace",
        "label": "address",
        "numberOfBytes": "20"
      },
      "t_array(t_address)2_storage": {
        "base": "t_address",
        "encoding": "inplace",
        "label": "address[2]",
        "numberOfBytes": "64"
      }
    }
  }
}