{
  "address": "0xB7f8BC63BbcaD18155201308C8f3540b07f84F5e",
  "abi": [
    {
      "inputs": [],
      "stateMutability": "nonpayable",
      "type": "constructor"
    },
    {
      "inputs": [],
      "name": "BEGIN_JSON",
      "outputs": [
        {
          "internalType": "string",
          "name": "",
          "type": "string"
        }
      ],
      "stateMutability": "view",
      "type": "function"
    },
    {
      "inputs": [
        {
          "internalType": "string",
          "name": "name",
          "type": "string"
        },
        {
          "internalType": "bool",
          "name": "omitQuotes",
          "type": "bool"
        }
      ],
      "name": "BEGIN_METADATA_VAR",
      "outputs": [
        {
          "internalType": "string",
          "name": "",
          "type": "string"
        }
      ],
      "stateMutability": "pure",
      "type": "function"
    },
    {
      "inputs": [],
      "name": "BEGIN_SCRIPT",
      "outputs": [
        {
          "internalType": "string",
          "name": "",
          "type": "string"
        }
      ],
      "stateMutability": "view",
      "type": "function"
    },
    {
      "inputs": [],
      "name": "BEGIN_SCRIPT_DATA",
      "outputs": [
        {
          "internalType": "string",
          "name": "",
          "type": "string"
        }
      ],
      "stateMutability": "view",
      "type": "function"
    },
    {
      "inputs": [],
      "name": "BEGIN_SCRIPT_DATA_COMPRESSED",
      "outputs": [
        {
          "internalType": "string",
          "name": "",
          "type": "string"
        }
      ],
      "stateMutability": "view",
      "type": "function"
    },
    {
      "inputs": [],
      "name": "END_JSON",
      "outputs": [
        {
          "internalType": "string",
          "name": "",
          "type": "string"
        }
      ],
      "stateMutability": "view",
      "type": "function"
    },
    {
      "inputs": [
        {
          "internalType": "bool",
          "name": "omitQuotes",
          "type": "bool"
        }
      ],
      "name": "END_METADATA_VAR",
      "outputs": [
        {
          "internalType": "string",
          "name": "",
          "type": "string"
        }
      ],
      "stateMutability": "pure",
      "type": "function"
    },
    {
      "inputs": [],
      "name": "END_SCRIPT",
      "outputs": [
        {
          "internalType": "string",
          "name": "",
          "type": "string"
        }
      ],
      "stateMutability": "view",
      "type": "function"
    },
    {
      "inputs": [],
      "name": "END_SCRIPT_DATA",
      "outputs": [
        {
          "internalType": "string",
          "name": "",
          "type": "string"
        }
      ],
      "stateMutability": "view",
      "type": "function"
    },
    {
      "inputs": [],
      "name": "END_SCRIPT_DATA_COMPRESSED",
      "outputs": [
        {
          "internalType": "string",
          "name": "",
          "type": "string"
        }
      ],
      "stateMutability": "view",
      "type": "function"
    },
    {
      "inputs": [],
      "name": "HTML_HEAD",
      "outputs": [
        {
          "internalType": "string",
          "name": "",
          "type": "string"
        }
      ],
      "stateMutability": "view",
      "type": "function"
    },
    {
      "inputs": [
        {
          "internalType": "string",
          "name": "name",
          "type": "string"
        },
        {
          "internalType": "string",
          "name": "value",
          "type": "string"
        },
        {
          "internalType": "bool",
          "name": "omitQuotes",
          "type": "bool"
        }
      ],
      "name": "SCRIPT_VAR",
      "outputs": [
        {
          "internalType": "string",
          "name": "",
          "type": "string"
        }
      ],
      "stateMutability": "pure",
      "type": "function"
    },
    {
      "inputs": [],
      "name": "base64Utils",
      "outputs": [
        {
          "internalType": "string",
          "name": "",
          "type": "string"
        }
      ],
      "stateMutability": "view",
      "type": "function"
    },
    {
      "inputs": [
        {
          "internalType": "address",
          "name": "chunk1",
          "type": "address"
        },
        {
          "internalType": "address",
          "name": "chunk2",
          "type": "address"
        }
      ],
      "name": "compile2",
      "outputs": [
        {
          "internalType": "string",
          "name": "",
          "type": "string"
        }
      ],
      "stateMutability": "view",
      "type": "function"
    },
    {
      "inputs": [
        {
          "internalType": "address",
          "name": "chunk1",
          "type": "address"
        },
        {
          "internalType": "address",
          "name": "chunk2",
          "type": "address"
        },
        {
          "internalType": "address",
          "name": "chunk3",
          "type": "address"
        }
      ],
      "name": "compile3",
      "outputs": [
        {
          "internalType": "string",
          "name": "",
          "type": "string"
        }
      ],
      "stateMutability": "view",
      "type": "function"
    },
    {
      "inputs": [
        {
          "internalType": "address",
          "name": "chunk1",
          "type": "address"
        },
        {
          "internalType": "address",
          "name": "chunk2",
          "type": "address"
        },
        {
          "internalType": "address",
          "name": "chunk3",
          "type": "address"
        },
        {
          "internalType": "address",
          "name": "chunk4",
          "type": "address"
        }
      ],
      "name": "compile4",
      "outputs": [
        {
          "internalType": "string",
          "name": "",
          "type": "string"
        }
      ],
      "stateMutability": "view",
      "type": "function"
    },
    {
      "inputs": [
        {
          "internalType": "address",
          "name": "chunk1",
          "type": "address"
        },
        {
          "internalType": "address",
          "name": "chunk2",
          "type": "address"
        },
        {
          "internalType": "address",
          "name": "chunk3",
          "type": "address"
        },
        {
          "internalType": "address",
          "name": "chunk4",
          "type": "address"
        },
        {
          "internalType": "address",
          "name": "chunk5",
          "type": "address"
        }
      ],
      "name": "compile5",
      "outputs": [
        {
          "internalType": "string",
          "name": "",
          "type": "string"
        }
      ],
      "stateMutability": "view",
      "type": "function"
    },
    {
      "inputs": [
        {
          "internalType": "address",
          "name": "chunk1",
          "type": "address"
        },
        {
          "internalType": "address",
          "name": "chunk2",
          "type": "address"
        },
        {
          "internalType": "address",
          "name": "chunk3",
          "type": "address"
        },
        {
          "internalType": "address",
          "name": "chunk4",
          "type": "address"
        },
        {
          "internalType": "address",
          "name": "chunk5",
          "type": "address"
        },
        {
          "internalType": "address",
          "name": "chunk6",
          "type": "address"
        }
      ],
      "name": "compile6",
      "outputs": [
        {
          "internalType": "string",
          "name": "",
          "type": "string"
        }
      ],
      "stateMutability": "view",
      "type": "function"
    },
    {
      "inputs": [
        {
          "internalType": "address",
          "name": "chunk1",
          "type": "address"
        },
        {
          "internalType": "address",
          "name": "chunk2",
          "type": "address"
        },
        {
          "internalType": "address",
          "name": "chunk3",
          "type": "address"
        },
        {
          "internalType": "address",
          "name": "chunk4",
          "type": "address"
        },
        {
          "internalType": "address",
          "name": "chunk5",
          "type": "address"
        },
        {
          "internalType": "address",
          "name": "chunk6",
          "type": "address"
        },
        {
          "internalType": "address",
          "name": "chunk7",
          "type": "address"
        }
      ],
      "name": "compile7",
      "outputs": [
        {
          "internalType": "string",
          "name": "",
          "type": "string"
        }
      ],
      "stateMutability": "view",
      "type": "function"
    },
    {
      "inputs": [
        {
          "internalType": "address",
          "name": "chunk1",
          "type": "address"
        },
        {
          "internalType": "address",
          "name": "chunk2",
          "type": "address"
        },
        {
          "internalType": "address",
          "name": "chunk3",
          "type": "address"
        },
        {
          "internalType": "address",
          "name": "chunk4",
          "type": "address"
        },
        {
          "internalType": "address",
          "name": "chunk5",
          "type": "address"
        },
        {
          "internalType": "address",
          "name": "chunk6",
          "type": "address"
        },
        {
          "internalType": "address",
          "name": "chunk7",
          "type": "address"
        },
        {
          "internalType": "address",
          "name": "chunk8",
          "type": "address"
        }
      ],
      "name": "compile8",
      "outputs": [
        {
          "internalType": "string",
          "name": "",
          "type": "string"
        }
      ],
      "stateMutability": "view",
      "type": "function"
    },
    {
      "inputs": [
        {
          "internalType": "address",
          "name": "chunk1",
          "type": "address"
        },
        {
          "internalType": "address",
          "name": "chunk2",
          "type": "address"
        },
        {
          "internalType": "address",
          "name": "chunk3",
          "type": "address"
        },
        {
          "internalType": "address",
          "name": "chunk4",
          "type": "address"
        },
        {
          "internalType": "address",
          "name": "chunk5",
          "type": "address"
        },
        {
          "internalType": "address",
          "name": "chunk6",
          "type": "address"
        },
        {
          "internalType": "address",
          "name": "chunk7",
          "type": "address"
        },
        {
          "internalType": "address",
          "name": "chunk8",
          "type": "address"
        },
        {
          "internalType": "address",
          "name": "chunk9",
          "type": "address"
        }
      ],
      "name": "compile9",
      "outputs": [
        {
          "internalType": "string",
          "name": "",
          "type": "string"
        }
      ],
      "stateMutability": "view",
      "type": "function"
    },
    {
      "inputs": [],
      "name": "fflate",
      "outputs": [
        {
          "internalType": "string",
          "name": "",
          "type": "string"
        }
      ],
      "stateMutability": "view",
      "type": "function"
    },
    {
      "inputs": [],
      "name": "owner",
      "outputs": [
        {
          "internalType": "address",
          "name": "",
          "type": "address"
        }
      ],
      "stateMutability": "view",
      "type": "function"
    },
    {
      "inputs": [
        {
          "internalType": "address",
          "name": "chunk1",
          "type": "address"
        },
        {
          "internalType": "address",
          "name": "chunk2",
          "type": "address"
        }
      ],
      "name": "setFFlateAddress",
      "outputs": [],
      "stateMutability": "nonpayable",
      "type": "function"
    }
  ],
  "transactionHash": "0x6de927e4749e49ce373b49afaa32180164c43d28850d59384de491b10b93a6a4",
  "args": [],
  "numDeployments": 1,
  "solcInputHash": "cf4f5b6d5eaf9388b3128a8b1a0f4f03",
  "bytecode": "0x60a060405234801561001057600080fd5b50336080526080516137d3610037600039600081816102dc01526115cc01526137d36000f3fe608060405234801561001057600080fd5b50600436106101585760003560e01c8063679f868d116100c3578063ab6f484d1161007c578063ab6f484d14610331578063bae75c301461036d578063c9f1b61c14610380578063dd852008146103bc578063ebe02405146103cf578063fdcdd4b4146103f157600080fd5b8063679f868d146102805780636d33aa671461029357806389fbf2b0146102c25780638da5cb5b146102d75780639595b59414610316578063a90567661461031e57600080fd5b806347f4388c1161011557806347f4388c14610224578063531434d214610237578063589dba3a1461024a578063597422e11461025d5780636218780f1461026557806364bdce1a1461026d57600080fd5b80630f2f968e1461015d578063167671b8146101865780632781bde2146101c257806329b95785146101f65780632b70503d146102095780633380c25614610211575b600080fd5b61017061016b366004611afc565b6103f9565b60405161017d9190611ba6565b60405180910390f35b6101706040518060400160405280601981526020017f646174613a6170706c69636174696f6e2f6a736f6e2c2537420000000000000081525081565b6101706040518060400160405280601581526020017425323533432532353246736372697074253235334560581b81525081565b610170610204366004611bd9565b610714565b610170610959565b61017061021f366004611c3e565b610a80565b610170610232366004611daa565b610e07565b610170610245366004611df8565b610e5f565b610170610258366004611e4c565b61103d565b61017061142e565b61017061144a565b61017061027b366004611ef4565b611476565b61017061028e366004611f0f565b6114bf565b6101706040518060400160405280601081526020016f2532353343736372697074253235334560801b81525081565b6102d56102d0366004611f0f565b6115c1565b005b6102fe7f000000000000000000000000000000000000000000000000000000000000000081565b6040516001600160a01b03909116815260200161017d565b610170611624565b61017061032c366004611f39565b611643565b6101706040518060400160405280601d81526020017f253235334373637269707425323532307372632532353344253235323700000081525081565b61017061037b366004611fad565b6118f4565b6101706040518060400160405280601f81526020017f253235323725323533452532353343253235324673637269707425323533450081525081565b6101706103ca366004611ff0565b611a65565b61017060405180604001604052806003815260200162094dd160ea1b81525081565b610170611ac1565b604080516339ea509d60e11b8152905160609189918991899189918991899189916001600160a01b038916916373d4a13a9160048083019260009291908290030181865afa15801561044f573d6000803e3d6000fd5b505050506040513d6000823e601f3d908101601f19168201604052610477919081019061205b565b866001600160a01b03166373d4a13a6040518163ffffffff1660e01b8152600401600060405180830381865afa1580156104b5573d6000803e3d6000fd5b505050506040513d6000823e601f3d908101601f191682016040526104dd919081019061205b565b866001600160a01b03166373d4a13a6040518163ffffffff1660e01b8152600401600060405180830381865afa15801561051b573d6000803e3d6000fd5b505050506040513d6000823e601f3d908101601f19168201604052610543919081019061205b565b866001600160a01b03166373d4a13a6040518163ffffffff1660e01b8152600401600060405180830381865afa158015610581573d6000803e3d6000fd5b505050506040513d6000823e601f3d908101601f191682016040526105a9919081019061205b565b866001600160a01b03166373d4a13a6040518163ffffffff1660e01b8152600401600060405180830381865afa1580156105e7573d6000803e3d6000fd5b505050506040513d6000823e601f3d908101601f1916820160405261060f919081019061205b565b866001600160a01b03166373d4a13a6040518163ffffffff1660e01b8152600401600060405180830381865afa15801561064d573d6000803e3d6000fd5b505050506040513d6000823e601f3d908101601f19168201604052610675919081019061205b565b866001600160a01b03166373d4a13a6040518163ffffffff1660e01b8152600401600060405180830381865afa1580156106b3573d6000803e3d6000fd5b505050506040513d6000823e601f3d908101601f191682016040526106db919081019061205b565b6040516020016106f197969594939291906120d2565b604051602081830303815290604052975050505050505050979650505050505050565b604080516339ea509d60e11b81529051606091879187918791879187916001600160a01b038716916373d4a13a9160048083019260009291908290030181865afa158015610766573d6000803e3d6000fd5b505050506040513d6000823e601f3d908101601f1916820160405261078e919081019061205b565b846001600160a01b03166373d4a13a6040518163ffffffff1660e01b8152600401600060405180830381865afa1580156107cc573d6000803e3d6000fd5b505050506040513d6000823e601f3d908101601f191682016040526107f4919081019061205b565b846001600160a01b03166373d4a13a6040518163ffffffff1660e01b8152600401600060405180830381865afa158015610832573d6000803e3d6000fd5b505050506040513d6000823e601f3d908101601f1916820160405261085a919081019061205b565b846001600160a01b03166373d4a13a6040518163ffffffff1660e01b8152600401600060405180830381865afa158015610898573d6000803e3d6000fd5b505050506040513d6000823e601f3d908101601f191682016040526108c0919081019061205b565b846001600160a01b03166373d4a13a6040518163ffffffff1660e01b8152600401600060405180830381865afa1580156108fe573d6000803e3d6000fd5b505050506040513d6000823e601f3d908101601f19168201604052610926919081019061205b565b60405160200161093a959493929190612164565b6040516020818303038152906040529550505050505095945050505050565b60606040518060400160405280601d81526020017f253235334373637269707425323532307372632532353344253235323700000081525060405180610f200160405280610ef081526020016128ae610ef091396040518060400160405280601f81526020017f25323532372532353345253235334325323532467363726970742532353345008152506040518060400160405280601d81526020017f2532353343736372697074253235323073726325323533442532353237000000815250610a2161144a565b6040518060400160405280601f81526020017f2532353237253235334525323533432532353246736372697074253235334500815250604051602001610a6c969594939291906121cf565b604051602081830303815290604052905090565b604080516339ea509d60e11b815290516060918a918a918a918a918a918a918a918a916001600160a01b038a16916373d4a13a916004808201926000929091908290030181865afa158015610ad9573d6000803e3d6000fd5b505050506040513d6000823e601f3d908101601f19168201604052610b01919081019061205b565b876001600160a01b03166373d4a13a6040518163ffffffff1660e01b8152600401600060405180830381865afa158015610b3f573d6000803e3d6000fd5b505050506040513d6000823e601f3d908101601f19168201604052610b67919081019061205b565b876001600160a01b03166373d4a13a6040518163ffffffff1660e01b8152600401600060405180830381865afa158015610ba5573d6000803e3d6000fd5b505050506040513d6000823e601f3d908101601f19168201604052610bcd919081019061205b565b876001600160a01b03166373d4a13a6040518163ffffffff1660e01b8152600401600060405180830381865afa158015610c0b573d6000803e3d6000fd5b505050506040513d6000823e601f3d908101601f19168201604052610c33919081019061205b565b876001600160a01b03166373d4a13a6040518163ffffffff1660e01b8152600401600060405180830381865afa158015610c71573d6000803e3d6000fd5b505050506040513d6000823e601f3d908101601f19168201604052610c99919081019061205b565b876001600160a01b03166373d4a13a6040518163ffffffff1660e01b8152600401600060405180830381865afa158015610cd7573d6000803e3d6000fd5b505050506040513d6000823e601f3d908101601f19168201604052610cff919081019061205b565b876001600160a01b03166373d4a13a6040518163ffffffff1660e01b8152600401600060405180830381865afa158015610d3d573d6000803e3d6000fd5b505050506040513d6000823e601f3d908101601f19168201604052610d65919081019061205b565b876001600160a01b03166373d4a13a6040518163ffffffff1660e01b8152600401600060405180830381865afa158015610da3573d6000803e3d6000fd5b505050506040513d6000823e601f3d908101601f19168201604052610dcb919081019061205b565b604051602001610de298979695949392919061227a565b6040516020818303038152906040529850505050505050505098975050505050505050565b60608115610e365782604051602001610e20919061231f565b6040516020818303038152906040529050610e59565b82604051602001610e47919061235a565b60405160208183030381529060405290505b92915050565b60606000859050600085905060008590506000859050836001600160a01b03166373d4a13a6040518163ffffffff1660e01b8152600401600060405180830381865afa158015610eb3573d6000803e3d6000fd5b505050506040513d6000823e601f3d908101601f19168201604052610edb919081019061205b565b836001600160a01b03166373d4a13a6040518163ffffffff1660e01b8152600401600060405180830381865afa158015610f19573d6000803e3d6000fd5b505050506040513d6000823e601f3d908101601f19168201604052610f41919081019061205b565b836001600160a01b03166373d4a13a6040518163ffffffff1660e01b8152600401600060405180830381865afa158015610f7f573d6000803e3d6000fd5b505050506040513d6000823e601f3d908101601f19168201604052610fa7919081019061205b565b836001600160a01b03166373d4a13a6040518163ffffffff1660e01b8152600401600060405180830381865afa158015610fe5573d6000803e3d6000fd5b505050506040513d6000823e601f3d908101601f1916820160405261100d919081019061205b565b6040516020016110209493929190612398565b604051602081830303815290604052945050505050949350505050565b604080516339ea509d60e11b815290516060918b918b918b918b918b918b918b918b918b916001600160a01b038b16916373d4a13a9160048083019260009291908290030181865afa158015611097573d6000803e3d6000fd5b505050506040513d6000823e601f3d908101601f191682016040526110bf919081019061205b565b886001600160a01b03166373d4a13a6040518163ffffffff1660e01b8152600401600060405180830381865afa1580156110fd573d6000803e3d6000fd5b505050506040513d6000823e601f3d908101601f19168201604052611125919081019061205b565b886001600160a01b03166373d4a13a6040518163ffffffff1660e01b8152600401600060405180830381865afa158015611163573d6000803e3d6000fd5b505050506040513d6000823e601f3d908101601f1916820160405261118b919081019061205b565b886001600160a01b03166373d4a13a6040518163ffffffff1660e01b8152600401600060405180830381865afa1580156111c9573d6000803e3d6000fd5b505050506040513d6000823e601f3d908101601f191682016040526111f1919081019061205b565b886001600160a01b03166373d4a13a6040518163ffffffff1660e01b8152600401600060405180830381865afa15801561122f573d6000803e3d6000fd5b505050506040513d6000823e601f3d908101601f19168201604052611257919081019061205b565b886001600160a01b03166373d4a13a6040518163ffffffff1660e01b8152600401600060405180830381865afa158015611295573d6000803e3d6000fd5b505050506040513d6000823e601f3d908101601f191682016040526112bd919081019061205b565b886001600160a01b03166373d4a13a6040518163ffffffff1660e01b8152600401600060405180830381865afa1580156112fb573d6000803e3d6000fd5b505050506040513d6000823e601f3d908101601f19168201604052611323919081019061205b565b886001600160a01b03166373d4a13a6040518163ffffffff1660e01b8152600401600060405180830381865afa158015611361573d6000803e3d6000fd5b505050506040513d6000823e601f3d908101601f19168201604052611389919081019061205b565b886001600160a01b03166373d4a13a6040518163ffffffff1660e01b8152600401600060405180830381865afa1580156113c7573d6000803e3d6000fd5b505050506040513d6000823e601f3d908101601f191682016040526113ef919081019061205b565b604051602001611407999897969594939291906123ef565b60405160208183030381529060405299505050505050505050509998505050505050505050565b60405180608001604052806042815260200161286c6042913981565b606061147160008001546001600160a01b03166000600101546001600160a01b03166114bf565b905090565b6060811561149d57505060408051808201909152600381526225324360e81b602082015290565b505060408051808201909152600681526525323225324360d01b602082015290565b606060008390506000839050816001600160a01b03166373d4a13a6040518163ffffffff1660e01b8152600401600060405180830381865afa158015611509573d6000803e3d6000fd5b505050506040513d6000823e601f3d908101601f19168201604052611531919081019061205b565b816001600160a01b03166373d4a13a6040518163ffffffff1660e01b8152600401600060405180830381865afa15801561156f573d6000803e3d6000fd5b505050506040513d6000823e601f3d908101601f19168201604052611597919081019061205b565b6040516020016115a89291906124b0565b6040516020818303038152906040529250505092915050565b336001600160a01b037f000000000000000000000000000000000000000000000000000000000000000016146115f657600080fd5b600080546001600160a01b039384166001600160a01b03199182161790915560018054929093169116179055565b6040518061022001604052806101f481526020016126786101f4913981565b604080516339ea509d60e11b815290516060918891889188918891889188916001600160a01b038816916373d4a13a916004808201926000929091908290030181865afa158015611698573d6000803e3d6000fd5b505050506040513d6000823e601f3d908101601f191682016040526116c0919081019061205b565b856001600160a01b03166373d4a13a6040518163ffffffff1660e01b8152600401600060405180830381865afa1580156116fe573d6000803e3d6000fd5b505050506040513d6000823e601f3d908101601f19168201604052611726919081019061205b565b856001600160a01b03166373d4a13a6040518163ffffffff1660e01b8152600401600060405180830381865afa158015611764573d6000803e3d6000fd5b505050506040513d6000823e601f3d908101601f1916820160405261178c919081019061205b565b856001600160a01b03166373d4a13a6040518163ffffffff1660e01b8152600401600060405180830381865afa1580156117ca573d6000803e3d6000fd5b505050506040513d6000823e601f3d908101601f191682016040526117f2919081019061205b565b856001600160a01b03166373d4a13a6040518163ffffffff1660e01b8152600401600060405180830381865afa158015611830573d6000803e3d6000fd5b505050506040513d6000823e601f3d908101601f19168201604052611858919081019061205b565b856001600160a01b03166373d4a13a6040518163ffffffff1660e01b8152600401600060405180830381865afa158015611896573d6000803e3d6000fd5b505050506040513d6000823e601f3d908101601f191682016040526118be919081019061205b565b6040516020016118d3969594939291906124df565b60405160208183030381529060405296505050505050509695505050505050565b6060600084905060008490506000849050826001600160a01b03166373d4a13a6040518163ffffffff1660e01b8152600401600060405180830381865afa158015611943573d6000803e3d6000fd5b505050506040513d6000823e601f3d908101601f1916820160405261196b919081019061205b565b826001600160a01b03166373d4a13a6040518163ffffffff1660e01b8152600401600060405180830381865afa1580156119a9573d6000803e3d6000fd5b505050506040513d6000823e601f3d908101601f191682016040526119d1919081019061205b565b826001600160a01b03166373d4a13a6040518163ffffffff1660e01b8152600401600060405180830381865afa158015611a0f573d6000803e3d6000fd5b505050506040513d6000823e601f3d908101601f19168201604052611a37919081019061205b565b604051602001611a499392919061255e565b60405160208183030381529060405293505050505b9392505050565b60608115611a96578383604051602001611a809291906125a1565b6040516020818303038152906040529050611a5e565b8383604051602001611aa9929190612607565b60405160208183030381529060405290509392505050565b60405180610f200160405280610ef081526020016128ae610ef0913981565b80356001600160a01b0381168114611af757600080fd5b919050565b600080600080600080600060e0888a031215611b1757600080fd5b611b2088611ae0565b9650611b2e60208901611ae0565b9550611b3c60408901611ae0565b9450611b4a60608901611ae0565b9350611b5860808901611ae0565b9250611b6660a08901611ae0565b9150611b7460c08901611ae0565b905092959891949750929550565b60005b83811015611b9d578181015183820152602001611b85565b50506000910152565b6020815260008251806020840152611bc5816040850160208701611b82565b601f01601f19169190910160400192915050565b600080600080600060a08688031215611bf157600080fd5b611bfa86611ae0565b9450611c0860208701611ae0565b9350611c1660408701611ae0565b9250611c2460608701611ae0565b9150611c3260808701611ae0565b90509295509295909350565b600080600080600080600080610100898b031215611c5b57600080fd5b611c6489611ae0565b9750611c7260208a01611ae0565b9650611c8060408a01611ae0565b9550611c8e60608a01611ae0565b9450611c9c60808a01611ae0565b9350611caa60a08a01611ae0565b9250611cb860c08a01611ae0565b9150611cc660e08a01611ae0565b90509295985092959890939650565b634e487b7160e01b600052604160045260246000fd5b604051601f8201601f1916810167ffffffffffffffff81118282101715611d1457611d14611cd5565b604052919050565b600067ffffffffffffffff821115611d3657611d36611cd5565b50601f01601f191660200190565b600082601f830112611d5557600080fd5b8135611d68611d6382611d1c565b611ceb565b818152846020838601011115611d7d57600080fd5b816020850160208301376000918101602001919091529392505050565b80358015158114611af757600080fd5b60008060408385031215611dbd57600080fd5b823567ffffffffffffffff811115611dd457600080fd5b611de085828601611d44565b925050611def60208401611d9a565b90509250929050565b60008060008060808587031215611e0e57600080fd5b611e1785611ae0565b9350611e2560208601611ae0565b9250611e3360408601611ae0565b9150611e4160608601611ae0565b905092959194509250565b60008060008060008060008060006101208a8c031215611e6b57600080fd5b611e748a611ae0565b9850611e8260208b01611ae0565b9750611e9060408b01611ae0565b9650611e9e60608b01611ae0565b9550611eac60808b01611ae0565b9450611eba60a08b01611ae0565b9350611ec860c08b01611ae0565b9250611ed660e08b01611ae0565b9150611ee56101008b01611ae0565b90509295985092959850929598565b600060208284031215611f0657600080fd5b611a5e82611d9a565b60008060408385031215611f2257600080fd5b611f2b83611ae0565b9150611def60208401611ae0565b60008060008060008060c08789031215611f5257600080fd5b611f5b87611ae0565b9550611f6960208801611ae0565b9450611f7760408801611ae0565b9350611f8560608801611ae0565b9250611f9360808801611ae0565b9150611fa160a08801611ae0565b90509295509295509295565b600080600060608486031215611fc257600080fd5b611fcb84611ae0565b9250611fd960208501611ae0565b9150611fe760408501611ae0565b90509250925092565b60008060006060848603121561200557600080fd5b833567ffffffffffffffff8082111561201d57600080fd5b61202987838801611d44565b9450602086013591508082111561203f57600080fd5b5061204c86828701611d44565b925050611fe760408501611d9a565b60006020828403121561206d57600080fd5b815167ffffffffffffffff81111561208457600080fd5b8201601f8101841361209557600080fd5b80516120a3611d6382611d1c565b8181528560208385010111156120b857600080fd5b6120c9826020830160208601611b82565b95945050505050565b6000885160206120e58285838e01611b82565b8951918401916120f88184848e01611b82565b895192019161210a8184848d01611b82565b885192019161211c8184848c01611b82565b875192019161212e8184848b01611b82565b86519201916121408184848a01611b82565b85519201916121528184848901611b82565b919091019a9950505050505050505050565b60008651612176818460208b01611b82565b86519083019061218a818360208b01611b82565b865191019061219d818360208a01611b82565b85519101906121b0818360208901611b82565b84519101906121c3818360208801611b82565b01979650505050505050565b74646174612533417465787425324668746d6c25324360581b8152600060158851602061220182848701838e01611b82565b89519185019161221681858501848e01611b82565b895192019161222a81858501848d01611b82565b885192019161223e81858501848c01611b82565b875192019161225281858501848b01611b82565b865192019161226681858501848a01611b82565b919091019091019998505050505050505050565b60008951602061228d8285838f01611b82565b8a51918401916122a08184848f01611b82565b8a519201916122b28184848e01611b82565b89519201916122c48184848d01611b82565b88519201916122d68184848c01611b82565b87519201916122e88184848b01611b82565b86519201916122fa8184848a01611b82565b855192019161230c8184848901611b82565b919091019b9a5050505050505050505050565b6212991960e91b81526000825161233d816003850160208701611b82565b6525323225334160d01b6003939091019283015250600901919050565b6212991960e91b815260008251612378816003850160208701611b82565b681299191299a092991960b91b6003939091019283015250600c01919050565b600085516123aa818460208a01611b82565b8551908301906123be818360208a01611b82565b85519101906123d1818360208901611b82565b84519101906123e4818360208801611b82565b019695505050505050565b60008a51612401818460208f01611b82565b8a516124138183860160208f01611b82565b8a519184010190612428818360208e01611b82565b895161243a8183850160208e01611b82565b8951929091010190612450818360208c01611b82565b87516124628183850160208c01611b82565b8751929091010190612478818360208a01611b82565b855161248a8183850160208a01611b82565b85519290910101906124a0818360208801611b82565b019b9a5050505050505050505050565b600083516124c2818460208801611b82565b8351908301906124d6818360208801611b82565b01949350505050565b6000875160206124f28285838d01611b82565b8851918401916125058184848d01611b82565b88519201916125178184848c01611b82565b87519201916125298184848b01611b82565b865192019161253b8184848a01611b82565b855192019161254d8184848901611b82565b919091019998505050505050505050565b60008451612570818460208901611b82565b845190830190612584818360208901611b82565b8451910190612597818360208801611b82565b0195945050505050565b67076617225323532360c41b8152600083516125c4816008850160208801611b82565b64094c8d4cd160da1b60089184019182015283516125e981600d840160208801611b82565b6412991a99a160d91b600d9290910191820152601201949350505050565b6c3b30b912991a991812991a991960991b81526000835161262f81600d850160208801611b82565b64094c8d4cd160da1b600d918401918201528351612654816012840160208801611b82565b6912991a991912991a99a160b11b60129290910191820152601c0194935050505056fe25323532372532353239253235334225323532307661722532353230756e7a697070656425323532302532353344253235323066666c6174652e67756e7a697053796e6325323532386461746125323532392532353342253235323076617225323532307465787425323532302532353344253235323066666c6174652e73747246726f6d55382532353238756e7a6970706564253235323925323533422532353230766172253235323062363425323532302532353344253235323062746f612532353238746578742532353239253235334225323532307661722532353230736372697074253235323025323533442532353230646f63756d656e742e637265617465456c656d656e742532353238253235323773637269707425323532372532353239253235334225323532307363726970742e736574417474726962757465253235323825323532377372632532353237253235324325323532376461746125323533417465787425323532466a617661736372697074253235334262617365363425323532432532353237253235323025323532422532353230623634253235323925323533422532353230646f63756d656e742e686561642e617070656e644368696c6425323532387363726970742532353239253235334225323533432532353246736372697074253235334525323533437363726970742532353345766172253235323064617461253235323025323533442532353230626173653634546f4279746573253235323825323532376461746125323533417465787425323532466a617661736372697074253235334262617365363425323532435932397563335167596d467a5a54593059574a6a4944306757776f6749434a4249697767496b49694c4341695179497349434a4549697767496b55694c4341695269497349434a4849697767496b67694c4341695353497349434a4b49697767496b73694c4341695443497349434a4e4969774b494341695469497349434a5049697767496c41694c4341695553497349434a5349697767496c4d694c4341695643497349434a5649697767496c59694c4341695679497349434a5949697767496c6b694c4341695769497343694167496d45694c4341695969497349434a6a49697767496d51694c4341695a53497349434a6d49697767496d63694c4341696143497349434a7049697767496d6f694c4341696179497349434a7349697767496d30694c416f6749434a7549697767496d38694c4341696343497349434a7849697767496e49694c4341696379497349434a3049697767496e55694c4341696469497349434a3349697767496e67694c4341696553497349434a364969774b494341694d4349734943497849697767496a49694c4341694d7949734943493049697767496a55694c4341694e6949734943493349697767496a67694c4341694f534973494349724969776749693869436c30374367706a6232357a6443426959584e6c4e6a526a6232526c637941394946734b494341794e545573494449314e5377674d6a55314c4341794e545573494449314e5377674d6a55314c4341794e545573494449314e5377674d6a55314c4341794e545573494449314e5377674d6a55314c4341794e545573494449314e5377674d6a55314c4341794e545573436941674d6a55314c4341794e545573494449314e5377674d6a55314c4341794e545573494449314e5377674d6a55314c4341794e545573494449314e5377674d6a55314c4341794e545573494449314e5377674d6a55314c4341794e545573494449314e5377674d6a55314c416f67494449314e5377674d6a55314c4341794e545573494449314e5377674d6a55314c4341794e545573494449314e5377674d6a55314c4341794e545573494449314e5377674d6a55314c4341324d6977674d6a55314c4341794e545573494449314e5377674e6a4d73436941674e5449734944557a4c4341314e4377674e545573494455324c4341314e7977674e546773494455354c4341324d4377674e6a4573494449314e5377674d6a55314c4341794e54557349444173494449314e5377674d6a55314c416f67494449314e5377674d4377674d5377674d6977674d7977674e4377674e5377674e6977674e7977674f4377674f5377674d544173494445784c4341784d6977674d544d73494445304c416f67494445314c4341784e6977674d546373494445344c4341784f5377674d6a4173494449784c4341794d6977674d6a4d73494449304c4341794e5377674d6a55314c4341794e545573494449314e5377674d6a55314c4341794e545573436941674d6a55314c4341794e6977674d6a6373494449344c4341794f5377674d7a417349444d784c43417a4d6977674d7a4d7349444d304c43417a4e5377674d7a597349444d334c43417a4f4377674d7a6b73494451774c416f67494451784c4341304d6977674e444d73494451304c4341304e5377674e445973494451334c4341304f4377674e446b73494455774c4341314d5170644f776f4b5a6e567559335270623234675a325630516d467a5a5459305132396b5a53686a614746795132396b5a536b6765776f6749476c6d4943686a614746795132396b5a534125323532425053426959584e6c4e6a526a6232526c637935735a57356e644767704948734b494341674948526f636d39334947356c64794246636e4a766369676956573568596d786c4948527649484268636e4e6c49474a68633255324e43427a64484a70626d637549696b374369416766516f6749474e76626e4e3049474e765a4755675053426959584e6c4e6a526a6232526c6331746a614746795132396b5a56303743694167615759674b474e765a47556750543039494449314e536b6765776f67494341676447687962336367626d563349455679636d39794b434a56626d466962475567644738676347467963325567596d467a5a54593049484e30636d6c755a7934694b54734b4943423943694167636d563064584a7549474e765a475537436e304b436d5a31626d4e306157397549474a356447567a5647394359584e6c4e6a516f596e6c305a584d704948734b494342735a585167636d567a64577830494430674a79637349476b7349477767505342696558526c637935735a57356e64476737436941675a6d397949436870494430674d6a7367615341384947773749476b674b7a30674d796b6765776f6749434167636d567a645778304943733949474a68633255324e474669593174696558526c63317470494330674d6c3067506a34674d6c303743694167494342795a584e31624851674b7a3067596d467a5a54593059574a6a5779676f596e6c305a584e626153417449444a64494359674d4867774d796b67504477674e436b676643416f596e6c305a584e6261534174494446644944342532353242494451705854734b4943416749484a6c63335673644341725053426959584e6c4e6a5268596d4e624b4368696558526c63317470494330674d5630674a694177654442474b534138504341794b534238494368696558526c633174705853412532353242506941324b56303743694167494342795a584e31624851674b7a3067596d467a5a54593059574a6a57324a356447567a57326c64494359674d48677a526c30374369416766516f6749476c6d494368704944303950534273494373674d536b67657941764c7941784947396a6447563049486c6c6443423062794233636d6c305a516f6749434167636d567a645778304943733949474a68633255324e474669593174696558526c63317470494330674d6c3067506a34674d6c303743694167494342795a584e31624851674b7a3067596d467a5a54593059574a6a577968696558526c63317470494330674d6c30674a6941776544417a4b534138504341305854734b4943416749484a6c633356736443417250534169505430694f776f674948304b494342705a69416f615341395054306762436b67657941764c7941794947396a64475630637942355a5851676447386764334a706447554b4943416749484a6c63335673644341725053426959584e6c4e6a5268596d4e62596e6c305a584e626153417449444a64494434253235324249444a644f776f6749434167636d567a645778304943733949474a68633255324e4746695931736f4b474a356447567a57326b674c5341795853416d494442344d444d704944773849445170494877674b474a356447567a57326b674c5341785853412532353242506941304b56303743694167494342795a584e31624851674b7a3067596d467a5a54593059574a6a577968696558526c63317470494330674d5630674a694177654442474b534138504341795854734b4943416749484a6c633356736443417250534169505349374369416766516f6749484a6c64485679626942795a584e3162485137436e304b436d5a31626d4e306157397549474a68633255324e465276516e6c305a584d6f633352794b53423743694167615759674b484e30636935735a57356e644767674a53413049434539505341774b534237436941674943423061484a76647942755a58636752584a796233496f496c567559574a735a5342306279427759584a7a5a53426959584e6c4e6a5167633352796157356e4c6949704f776f674948304b4943426a6232357a64434270626d526c6543413949484e3063693570626d526c6545396d4b43493949696b3743694167615759674b476c755a47563449434539505341744d53416d4a694270626d526c6543413849484e30636935735a57356e644767674c5341794b534237436941674943423061484a76647942755a58636752584a796233496f496c567559574a735a5342306279427759584a7a5a53426959584e6c4e6a5167633352796157356e4c6949704f776f674948304b494342735a58516762576c7a63326c755a30396a644756306379413949484e306369356c626d527a56326c3061436769505430694b53412532353246494449674f69427a644849755a57356b633164706447676f496a30694b53412532353246494445674f6941774c416f67494341676269413949484e30636935735a57356e6447677343694167494342795a584e3162485167505342755a58636756576c7564446842636e4a686553677a49436f674b4734674c7941304b536b73436941674943426964575a6d5a584937436941675a6d3979494368735a585167615341394944417349476f67505341774f79427049447767626a736761534172505341304c4342714943733949444d704948734b4943416749474a315a6d5a6c6369413943694167494341674947646c64454a68633255324e454e765a47556f633352794c6d4e6f59584a446232526c5158516f61536b7049447738494445344948774b49434167494341675a325630516d467a5a5459305132396b5a53687a6448497559326868636b4e765a47564264436870494373674d536b7049447738494445794948774b49434167494341675a325630516d467a5a5459305132396b5a53687a6448497559326868636b4e765a47564264436870494373674d696b70494477384944596766416f67494341674943426e5a58524359584e6c4e6a52446232526c4b484e306369356a614746795132396b5a5546304b476b674b79417a4b536b3743694167494342795a584e3162485262616c30675053426964575a6d5a584967506a34674d54593743694167494342795a584e31624852626169417249444664494430674b474a315a6d5a6c6369412532353242506941344b53416d49444234526b593743694167494342795a584e31624852626169417249444a6449443067596e566d5a6d5679494359674d486847526a734b4943423943694167636d563064584a7549484a6c633356736443357a64574a68636e4a68655367774c4342795a584e3162485175624756755a33526f4943306762576c7a63326c755a30396a6447563063796b37436e302532353344a26469706673582212203d16c34d5d9fd006464a3ead69c2a0bb270ccd6883e0296052127a9acd36fd1364736f6c63430008180033",
  "devdoc": {
    "kind": "dev",
    "methods": {},
    "version": 1
  },
  "userdoc": {
    "kind": "user",
    "methods": {},
    "version": 1
  },
  "storageLayout": {
    "storage": [
      {
        "astId": 349,
        "contract": "contracts/DataChunkCompiler.sol:DataChunkCompiler",
        "label": "fflateAddresses",
        "offset": 0,
        "slot": "0",
        "type": "t_array(t_address)2_storage"
      }
    ],
    "types": {
      "t_address": {
        "encoding": "inplace",
        "label": "address",
        "numberOfBytes": "20"
      },
      "t_array(t_address)2_storage": {
        "base": "t_address",
        "encoding": "inplace",
        "label": "address[2]",
        "numberOfBytes": "64"
      }
    }
  }
}