{
  "address": "0x7536B093D950390134201F87f32b12F5b94d6600",
  "abi": [
    {
      "inputs": [],
      "name": "data",
      "outputs": [
        {
          "internalType": "string",
          "name": "",
          "type": "string"
        }
      ],
      "stateMutability": "view",
      "type": "function"
    }
  ],
  "transactionHash": "0xa94d38bd3c5b4cce040bd745c5d6d5d4a2071873349491162181e8517de6a822",
  "args": [],
  "numDeployments": 1,
  "solcInputHash": "cf4f5b6d5eaf9388b3128a8b1a0f4f03",
  "bytecode": "0x608060405234801561001057600080fd5b50615e4a806100206000396000f3fe608060405234801561001057600080fd5b506004361061002b5760003560e01c806373d4a13a14610030575b600080fd5b61003861004e565b604051610045919061006d565b60405180910390f35b60405180615d800160405280615d5881526020016100bd615d58913981565b60006020808352835180602085015260005b8181101561009b5785810183015185820160400152820161007f565b506000604082860101526040601f19601f830116850101925050509291505056fe2b746c79477941655441696c413638735a7934716b43557077477741733141363242745936646644642b33594d4236336866386e624d2b6a4e34415233506d33786b5442776b576f4e664e4d6a47444d7355706b4c796231697a6d34552f74517a504d4a565635426e4b766839546259504c334c776d485673644e496c706a676c335a563566554f2f334f3132746370726c6d746456626a6e376e4a346249496c73345449444273434a31706752333430667a723353705a5450766b666666782b5158543547517942345349366275444942767358694f4c497554483068354f4c32514a5367575259635842567a4c68354c4877695555696c6d4e5977536d30506b304a706258745552556356554a526f35454b632b585732773859355a4369752f4a2f3661594b73504178427767664178522b6573743867396a61746431483844674c767464733072334234777a7577765a4b2f57376e4e38755056637772505a694b51426f4b7854506e3543524c56545469684a736f596f32344f5271563045693156744867664d6f51586548572f2b6355504f5778694a34552b57334f62416a56326837694c796f76436d30453131464a6a346b6d414b69666b434a457354466b734f787a5271436d6c6c384b502f417a6862384e676d6744455743544c5451587a636730784874622b496d41584b3468375735755333496a695672695a696c6f53576431626b763430755a2b50644f674655664e5569324a6e4c4c6a7370462b77394d6978644b4e3678384341764e336a4b37794f377966325762565472434f6377472f3371584167772b552f2b67474364754c6862346656784d423772516d53337976686e44506e6153316d45496e5850643876504d747a554d2b5343734e2b595443566a6c31716c47574d654836463859536c3964526352594b5a6e484670467a642b643339706d513675574946744555664d6975584a546175586e34467966396c6365517a706a4b30732b784575724e444f6441387553463054737234616c6936596431424e71636c32344632706c6f51427a665a38346b414e33336d714248436b4a3430552b6232576b784e736731703433464449677167412b4d694d6a43586f434270617a396c4e3777456c352f72657a395049704a6c4d306d354c4941776369664b794345702f4c6c2f75707a4c306a6c7a58486a45354a673066477a4f547364353375787138766b4d6d665358736d546f493865532f6374596b37682f2f5a474659734c48784258364338352b36694a32626e623458306e47354f77524c364236534d734f65576739342f54496e77476f744c41736b4e6c7a484a43356d414763324a67307650797a6a412f5446516b6b354358774731333546704e6d6c6d306b2f627239755654547a5170792f69306b6c7a496c3746576e4d4d2b7847774f656d5342672b68697146794763526a2f4c6a73325461544c6a3856526a3079396144664d465273586a3461523654726d5a2b334579726430652b42324d75526778505a765361536164685a694251735243594f6635764d30626d32714b69387a61356931455159767a566b594e354449724130467a5a6d56415167705752717849564f70395a7745396961736d644b336f78534c69723033475a463568346748414e754d33697547706f76685533504b4f4973575450345130776e77492b514d6a6979544767376c3751422f702f515739447a454b6678483566464c30634e67487773556c72792f445435656d582b53396b525a584266335a3067376279685a4f4c2f50564e4748316159452b305453494748796b515977727867644836335361766f4f6137427a71317836616543467a592b4854763145336c706b2f574b2b6a67355747355437486f53684c64517330735973416b46384476562b437654453366376769384d6c7368614b67365978795a346f466d4b4e4847675a66664838364762724547504243316f6d445756575541426877586c497a75302f31686636486b45582b582f634d47574c3477616677545045694d704b4a6564415751767a7662444f346678303271633430614868375a3376564a4c6172327a444547696346545174744b41575559384b617a347a45614b4b44727677624a4e6a30622f434d6f457739386846657a566464635a6930496e61743755473158642b42743247774b66796a5859575230326d447141666534526c32587663597636416138426f44724c335336736d77327175544173712b317866385a585a627048594d3245516471686b51356a6d646758684967787a4647386a784a7551624c496135316649714c62373053522f3879302f496c4a594e63574c4e6c614a4a3546746c6c647742714b596c61566c6a7137744449304a64494251704264464b376346703332556246516a4874416d5557785355767453507a33444146436f436f316155446863707864676b504d5866333539555a356a3377472f366661386770374d6a4c315366352b745a774943696970344e4e48433050736a744a78414552422f32322f64496e2f342b71562f357032666c577a704b6349517a382b5655516e52475734793742482f554b75564e567a53477442344f76786b745441305664353048557250764e744955426e73494653735a574d456a3372726c6e706841414d4f6b646133754a4e6d593946694b66356d72453867355048564f3862386a58395a425751646c485a517475365667517031576b316e3064595a2b32794676724730374b50416e3357733943616951502b3565544d3565345a6a6d5a705166623858454a72733136334b503072474b314e693246765274456547455765695a4a35354336316465576971536e377439794b4542473250734a575530616c43584331426153316b43777956654651766f7169744f3665724152303956556b416a52483955354c5a6a774a3755506b3636647161616a6969497154693253744671314a7058553735374d714268524a514e4b4e6c586e7461723851327950346655667a532b4d5276414163325378585a4a4d4d7339426377366d6e706d53416144714b2f5671796d774b4e6e45683257622f7769625752446d74332f2b447478417657762b6d6648505838696158646136676645356e61787435626f5a727257324556536d6445597a71616f59733768384953504d6f773046694d6345455551385063443239775934304a5662546c4f6454534349656733353162477336743557796e755859596d3074686b72642b7473324e646a4c707867767950583756667a6541356163386e4a4433724562666b4b506948314f3357346647675532742b363151395859496f5237427757304a69437555656c5a4d344930394375443350634336793953726b58354938556867534768725a686856462f79672f636c7532356e6567616976656a65356e7552396a66752b4f353979584863396e4a764f7968584870344c584e754c58396b2f51496831474e2f5a4e3358707a66642b6c502f394749706a47696d71336e446c53796b6c325872593874757762514a35546e7773415a47454b754457762b456e4d4c7868396134586b6875674b4c424d73503645376438503633785759537448694b686c4e45474f37595431352b64316148654d767757524d6955736b5078377769515a67656e364e6451394176503067435576507336754f7670772b5a424f59635a31566b6170774d6e475832656d4a6c48714c77457467664862596f4a50616a704b756773317072336e58413475784741374c6b33703867455163383736535769732b4b384b367347696a73534375754d3958644874376633376b38625436644e34576c356a6944414b72696a4872696a4872696a547a514d5339494e517265722f4f726a4a526a662b4278445136635730384a786e672f6e623154615938755761634c43454d625056433354647074444d685979524b3148564c4937643737622b6476324863654578712f68706454342f6d39337676762b7a766468636e4145334e366d442b6c74524b544558313756774b394f2b65634d453666782b3959377a624e6458434c50634d6d37574b504c474e4b36387a68442f68433872387466634c4661654d4562596766464d4c6856544435706e54486f4a7544724e553938567467704136306372375632366c39514a756666755848637a664e4666477866746d4f3257737248546a306665316e4b783559636a72514d4359666a656630797735332b4e4f6f647532504f70307a32504b5377452f586e697a4243446c316c346a4a596351395941525035373748367659386637393278457a2f47416a6743426952524269422b506477623570476b513277777645435949574c433147326873396230396d433136752f325742586e376a5641317070567868337964336e2b687374506645577858386543515959735737656d67484c594e48773677575938775759383466576c6f4d7a376853473352664e386c386b74414a30727645527a3532774f6d573567396e35377448714f4e4265627a646c75727a6c7a6f3768757a5737336b6c4563686c466331315a506b6558436a344b2f3353674f4158654136684a5158514b7153304a363361724f6b4344395a7532362b536876567842656b2b67413461385749587848454435624c5556343252517939383975697641306a776f496631562f6c6b48343533436e48635659507937422b6965656e586e6b6e33377854372f2b6d37497a57567451354d4d50444136574a387362354a5a6e667832424b6248573769392b676e6947662f4850675638643361364c70566b327a7566775a46615a316a2f6159446f7779637147784b2b683448624151736d36414e5a49586968416b5963587351354638495564686464666a38384a774a65794f564756504a63545a78596d5a4b577452465757355a5765334a4168414c4a2f6e756a736c30536e3832694b2f5a4d66753345706a30716b616c45666d626b715a4e764b4a365777756a4e6c4c572b2f684b396230453378562f6e506f73466e58366b41383638574a6a45794b46422b3749476e4f582f70302f74422f616435386a386e2b7a4f5a6e2f4a64334b4d4357475072336e6666666265396462652b674b416d776b49472b484e484d787134657864685a536b6b44455662572f652b523547373731587637487a33335630592b555a56704673657831613073335033377030374f35473841705957717065447278654e51453945525248387756694d4552624b464a4853677870772f412f486c4b6543593052784169486b5078674a4c6c42343050724f692f6a324468776d33426c775556305a624b3341497767576f7044363879656556675a332f453838725178322f45383879526636383454666e7668762b62527934722f6c3038714a2f355a50386f55314a642b476e2f4a7441454d716833366c4b64387977707a4b3931424875462f344d76714644364e662b45352f54646e6e464657426b2f7a4a5071656f617a2f5a4a36766f7a77352b54565967333354746f4141626e3238453967373764415838744d4f4f7245426d7073507875414b707753476751506271596d6c76746c7142744c65656b63667976704979414f714a453653787a67664750786f566864307739576d4151676b684571764d7277417166544f524c54534f6b445268797948366a615064624753784b4c666b4e75776c7469347a684c58662f45735568776d304a72474e714a634e727152697266376a56484141494945536d645a4e5334455655616b5645696573464e6f352b5839374153537746326b354d434a38454a554452337a395545794d53747033355a6e6d5858476d645665634e6d366c52486f723366697576725552657555576363316b583455654e757662766c6851502f547335306332672b38364b6f36624366444c5676486c6f5469643572416d7368756a356b4e357076337749753241355253474c43576c7a6f756530615433344e6237345150684c4b444c354b2f496d773253455a582f35784b336a663264435964507556424d55353647564b653755394658645a7a3052464b636f7664722f706e784431775a324f72726166336e61663339745035476a3631586b2f72625a5a546c57523462523975397639307a2b5a326574362b783837627571576741624370786178762f3765432f54636936372b4b2f652f6a764f2f783352307132554c4b4e6b703336647a696d6c41564f49794c35367a4859654263476d554f5536424d69796f4e30727966324c314a65536b395254656c70717652486a4a71555534433559386f5365457171546e4a6946364245465261626a714b57366631767071374f5a6443494d7435724c7045537731454641395933726a397857412b5245304b4f5447424f796f54717147376465754e5a5944577055504b6f622b46636a746665564e77705631424738394342504d4241504b4e436730325754777675316b4c55616d3075626250484d4e59777545556353636176426f3732397266353842636564684468576c376463612f75756c6633334b76762b4d425833377458662f4d4e4d6b4b32764e755374766c79537871587432686447393143383242422b59543274646b746447427670516435697937734c6672516c72656c443737646c6a3734646874393246735a775639416761786d4b356d697a7644384168503067414a54526a2b2f4f45505551715a4d784e6d594c456570655a4e6870526b4d655878544d795a3138696a3846677a6b496c3937313751394f4e4d6f6c525438386539454d774a786b4b742b415846594c414b516b39434f53586534686f4a51354d3731364a6465777a4f457062303059546d436c5870435658594357566d454b534173583063487a74696e666f642f2f4669566f38637359684e4c4d544a387a733945626439346a7a4f55305474643376543142677064723947742f376d73506a57527654736b432b66472f494e42313934745a727234387a46434c62484d486b747867467170346e584b6147797a787736634745757777795234764c6f4831537953536b4c5751316e616d433544595a38684c6358414f49743059346976342b647367507a67646169554d4251504e56477a67637333316145623650436933656c4e5a6f324e375978357954784c4645774942565a66694f76714b694b54703261477a4f62673035414d61727477672f3565535255654570776d46776664714a5a677a684577496672683342454b4e58766a486b4c31445a43595a637335365a70554a494a4737533176736b396b6d2f774463564a2f38374b53663935455a31456b4f73346748616a79384d6f685863594458377330533671634e33373046676c7a776c7671676b654a507a386a6366584379524265614d7a436a653156434b4e386f57614d517948473751746654786c713837564f7730306b714e69365272702f746a6b634175534e75334c47594654426a51544636796a6e5741496c3147736b6c7035437343423642594f64376d3234354764513262346f5a426f5241424b375279766f4c724f6d735a6e41754b6537716242705a336c58327251615577704669454a6c574d6c546c635568377a5646794f4e6c2b4e61346e537a33536d65336a622f782f31517044644e6f624176362b666a594863516730555a58745037752b7077506a4e79612b766f3376563742543576334f6e69544a53464b424f5a75354b6550787332454d6d3256664e5a3968456d375479504c366d2b495a75645a4d4a324f76413139756875416b5342486d553241516e6375796d6f48516d4b477458526341714735553538674e69517674364675765063547739545143454b6e427272445678347634516f664661644e326242454170723370485a596d5a4d6f4639724778752f7a7a475963384b7155312b777934565930626e557a4d755150585671784971376e51796b702f6e3268564468776f627057706830614f6374724a72304d2f32562b4d5557394861514c72544e485331686e3470525679724e787a334d5065497774762f6b7a614a7555776232424c6a42726d746e4f457658723774674c416b765567482b663671613547463556742b7334435038425534534e726532373951304b30546432384c3837642b36425647377a7a2f6662422f582f6e7262757276334469664c7233303562327a7a73577458712b796b6b366258396e533675524a7351504f7a76624737697872526c6a3767796264736a626d4d37396f6a723242313778483373726a3369516e59506a34425452657a6664757144733959784e4166314555724f474d2f2b5746676c6a46774c6544772f485236444833652f54382f62344c2f77692f344b59304334745261694e4e79743157423930546d44432f7634724e342f612b3362555761434d76766c70476e525334714f3472665262786a6f6e36484e39506436564e41357737715077322b385377766b653872395851565841474f416944686c3479384b2f655052622f4642315a386b537137507049445049534e515a3470586f70784a7373663370794e4d6a7471415965393869774d6f4c3657685a5834343873575557713532342b6f48527374727241687232414e572f6f524d62517967385144745167677573536f51376d2f51514251314f48387965424e2b64676558514f794752617577614c79534541737674524268415457746c69394234477563314c334a464c786f752b394b7354507178363859624d4f5651477833337274416b4c576f414f476d7536542f726b6a694d59473366547a6f44435759755a56507a67534e5039574830386d633135394d7a665479444b6d6152343256647750384e336b337563415a32574d6b74517039574b626e4678586b785774506d6d56766354586d4f336e7268536d567932356e702b4b496a333262764e32755443397a35644a543561546473594430726c326779417844304659766b515562342f4b48756139312b33626c786338494b3457774a3568644e446565495a5455656250792f4e6d4c78382b6b325857454a6b576f555451464b73324d64506a65756d4454514b7a41617a676f367846596c56726c672b76753357523657576c56746a63324b36756f566c6d7662473173656d4373525238454444565a554a554755624653693672325469705662622f56716d7a795a647a4e75306e635367677239746673756c6e426f4b755672586f4672553778476161386368302b2f5651786c695671587a70667076337276326132516b6b646c466457573556316a6c6137583539695350584b2b7155424d4a7350414765734449434e36344b324f57505739462f7a6d393635796477744e7a61643233564f4c6b7a79466b33756e532b6533466e4242416751427343437962303762334b7a67394f355865666b73756c3463734f6a6337335037546466523369586334534767457733366a6d375554482b6449504a336e4b625854654566486a615033544744627074376c51394c636c75486749424c52664d6655386c766d4b476d6932695a34736f32724b30423852415434614b6e67476a3755635650534638523634436d72644b3439773770545232614f785842705744584a576a34624266695136526b6a623050436c357157644c377155526254316d6f714735703367457964466a4c635876303850484e2f59667655476e507a3375566e615239305a656a512b5a75752f514c65415048716d77374e724c712b3531742f39715348734d434f6f45487970796c7157494c7473674155756f615859334f4639684e68434e4d64354c7555613451596f6147622f34365545456d4d4b30624b50624a5932697a6365663365684f656150504d6f33574b39396c6a7147354c642b355363746239323753394e337970682f6c6d74362b57394a325551732f74632f50322f6b6d4e6a443363514e35696b5963342f327550586f3131443076574c67412b314b6b2f317a3079376453686e3836726c644434754569564d6d33576f6141726c5569347331624c635041714e566e5332466776756b79464378736569344b357473757738476f3755656668344f75426348466d2b4b676e6946464646437537436e517a71617a674768613766545944462f2b683935794b6f392f656650732f765044562f39382f766a77346573486a773966762f4656504f587554492b3668394e4c584e524f2b6e6f4d35716c33594b6866796c4548426b564f486f32467143644e4736644d6474613146735267636e7a68394b6445544c2b4b4741546c39596648694e534c314d502f4a533274692f4e785256794550466676416445444e325a4663747a4a7175383266507475736c62706a495a6a774d412b41486a327178712b6f345732677a4839566f6134576d46306a486b4e67494d48507132486363655934646631714b63553653486d2f2f5762717546475054753275683376786568567971335a52416e45725a6a42714f78356e714453634c5068536f6f476c4d4175323432536e6f6f456e504454494863687665726f66776b6f7542517148466f763277636b716677577247762b6c54475376716c6f354c3756494834314a45792b41507635492f425a684669652f35547577682f5068425a38737a4536506171737451496274316b3577434a48653047614b4f675a334a4f636a32437630504657452f2f73516a5a5951516a6a2f417a70575672356f655734795879566478504a2f4a2f306b5a6b52742b555566584644555152633166334b44754a684c68686f4c7a7451336a56515972732b6a50677a6d38753155377a4b6d515573504d65544f746d64676e395736704c42696f4b546561376f5647616f464572447858547342684c4c703067767a39735842532b676d2b7a314b665557325a566c4f596e4657584e6a6c703541496643793034306a58506d634441744455572f452b693354654e467947444c485641784850586f7365544f4e68552f66326d64327a6b6c58583437546e46484d62412f345867324e5a44464c4e4f302b363930664e6c3236537734583967386979505a3575756a4d4c464b626b4f6d6d67327744672b6b46433543495455662f324f5963704838364c3577697a7166684f5259654a5a704f5354386e564669596d33786d53325a6632704a476f6b32587244752f3844364c54596f4f6c35514c7a304f48704c72474472534b6d644576414362465477394e426d335046344754316c643479747776456c534f5843597373552f684a4255556c6e325a4856465261666a57753667683645397a736a73366331614a53444a65473533522b6a7a793245433265554f3476503670554343643951674a2b7765616c6d542f444345785233676d434230516570354568567250452f6a377978365962467a316a7147626d47796343526c5557434a45544f425a6472663635462b5a335270636b2f5539354d487349397177525876536c376b3969514c497867466e70763045566f586a77336e37394d64656e366b4c6a69486a48766a6e5578434b4558574176517573504a52484d4b3567656f305a504c687857694f712b4f5932497338346166595a41795167487177762b46304a73387667417048362f3762337264314e3545713733382b76794753783577305149496b54594d4c305a7556477543516b784362417a4e6f7279346d64784743376a532b35444d4e2f503839547572545572626262646d44324f572f32586b5063705675704a4a564b70564a564f2b726738594874495a344a4a526d69583462654c6b684268716e6b50504458516142502b7549626b77685839534270616b68304258534263363647302b4f4b496535744c63384f32334f2f38625a43626c487837734f31654a4533494b377443343238544d4137307a70444e7a2f306a7a743073595458736570696a743830306155684655617a4b78736966634137734c566d35787a652f4f414278436c466a30367069714f764d746c7144466d4c794a377169545874686d7549436776444c6658612b6873394a4e4a3076563932315364716f756f586f4c78307275485a53413350526d70384e6e4b7134636135507a4f6f31354431526c503961735a6e53334d64374d63504670647747376934394f547573317055537874364f586547443037312f5755726d6a75397a314b506c6c5a57304533655053664577447a6c696b32364a4875346655703677664430767a392b646d4665694a3546462f38714d63627a32584f3861787430744131423963384c784d336c3361753272496b465148754e5663544a38444f723745356d6d497170386e67734e617853466d564f304145387054742f64752f31595037693330765058773867794f44336139784d536738394e6748374665504a44644d5177616239736359645a4871734764486270394d414c31426b65716534534e416c7554394c45596b5630774f354e5a4e3772726175386262527533494c4e2f352b5a363761307a6745326c48654e314b56364e7433797746415338534e707039597553724579303531556a5042337a43587649622b2f72754b75466d51536d6d75714d4f3369514847493251457534516c7457774a79626665476d417736756e53544150597a437866524b5438314d676c75654343566d4867354d616b556459464a5536634a667844573872306443467a4e4e4f6c59646c61736b55456d47534b4c64464b7077724448356b2f384b646766324d33544b496c776d5663392f633367326664784131446367316550556634784876793777502b432f596e582f6a4c455769652f7a6d483333662f3154526276596c414b53496e417269435a597139476630324a4f3072727338384763357358537a6f336f543244743347656256357967746b464a58347443673836787971595239704e6c4762452b6156387269584f5647706d3156514d686b4461446b3263316e2b6e3558466e6e6d6f384b6e2f72372f36625370594b765951713342754e4675445868384235326271445a7a4c454c2f5455526e67544f565739777538633667516e386c4351547879504a4562494f696e57536a596378726e63466d4559616c466a64364c5268746e4c4d6a377a2f574c2b4564344848392b6439572b6b4839552b6730654178715061746764334f7a615641494857434264757465357533706e384f7a30333364676765632f5452417a697750457749414233667a4d375033472f646c3575762f7378336955774d47454d55787435724c52624d34774a6a454f6e6f672b314266506f42446245473970397637702f566c372f4c3438522b77396b414c4b6c617447613442376b423669432b4a6f4853506a6e55456967626234644250624274774d4c4477372b7833593362392f706f62764f6a70373149452f414f6b426e4d58505062692b642f316f3653376356636a62534c69506c6f336c346e3530745872322b796e34476e347533594d445a31503745536f392b72316c784e736a4c4a33576e30662f69666a506f77733469504f356b654542694a6d714f364a54546748525233454e615148696a4c4b47656e4f4a4e70487a4e494445757a617449744c5a594c45444e374769586443514767424b56615542542f474b48553834386c68616c6c6b4e636c6c62494c664d77474e4f4d55542b466a5a58556a4f4a736753337867644c397942707a4d6d422b506b4335686c3433333341377331312f373338765076673666336c5657793170587648344976496d64314678547852733055456e535662394a3271697454712b773157623261414c7732666f676965384d5633744e356c6f2b677276626b373378395433352b63563767304d6e496950324f57306273596543332b36556230396247416b466a677034794a70546d5a49772f523334352b676d75384343772b516741743944364f3367332b624a4145344b36724942464e597545776a7675416c4f414c4d78747a65664852584a576d525366526735373469566d387a372b777a7a714241786a453763562f2f4e6638785373775a53766c683035666742696e33695237384366775239594a7546743654444552415a6768693532612f72576930332b56376933784b54465733436e6b6f4956562f44794c2f6f5448466578797266744963332f424c78782b687944382b35396e324873773047667a69302f766e5149372b634937766956384b652b75305a2b6e382f622f2f336d6d424c58722b636649494d6f6352436857706e70586f3536436e597570586a7262344d4a6d714d457a577a6144765647332b5470692f5177646b7559676d4d362f2f74703938454162316e314c444e49516c7477616f3633572b5a754761444262537559596a6b6265776565714478344c5555482b63614e466d67554934556c6b534e68525768677472764265674b4c4351777059373945706d6f30365a324b6f67357a6e355477654a31466e483134303670654d65616464693271746b6a3156652b436b46677037626c54647850597270556f786b69736557412b3139374a536d77564c77414f61326b6e3076567672724676727246767272467672724676727250396e724c4f457256692b666d73456457734564577345645773456457734539622f42434371786349706272626a74476a506c3263794d5a53766957396f6f3872763772324f5745726171535970543945554a6f34682b663247474d38384f523871636f676a3247446a4f595046487954344838586a6849556266615951794d334c546573506444643065394a7445495451342b7079486254597855304b4673504f686b596658436d524b3248776b2b6d3958386c4f746b4c425474334c74742b4b4b64394c4b38593230636b576144656e4c385251555331476c685a70616543794a555a67486a53437247644d6e7230476237526a5a6a67505a4d68593470746f5738754f2f55354275714833556a7a577653553776764f494a6e3936314e556252552f767475667a32584835374c7238396c392b65792f2f727a75566b344d374a2f50626f66587630766a31363378363962342f652f35386676572f6d664a312f6f686c32354f4b656b3579356c4c675a656c65536665727938506f763958676c64524438687735495a33497a472f4b2b756346347437567968356873444c6f58395a4c34336a79757732414631614537455078724433476b71732f6f4574552b37436162427a53536c2f79492b392b76563276307a626c2f45764444715079326f423457673758797248614d4979335444363146387a6f587a5a2b4c59494c523151694d456c793639565a3863654f4937434b62524a774e78356332694d48413151346f6d7a4a686170556a3152537447474d374e374174476e5143322f71656a354b34746a525554464967684b70497a66444238333165313165466f35537a3974796855392f384e3957495a4f357461396551713635425948434b736b663773455668654f5a41425734767656455139384253525a4c56754d74535656414d356c2b7331475273584c4e343037574d50627843784e5a4c6633594b56495a37774870743669364771766e42485857624c4e7a644b6272347737706c7249325546636f316646564b38433445334e4b784566336f5858305946734b3669646f62786f3955746a446148564344666e48704566666858332f2f44517472343343712f6833424676795a2f734762365879576f5844304b4a4e61747936424e473253676a3564714d2b7130574177525947373543624b6b364d48782f4d516f486747413636636c51344f354b7a303636495a7234706d394b6e6a4670762f526f4e4d6356704838367945514d6e4d3057616c4c717346626278696f576b7a69336e4a70776c7875392b4e6d346f53593759524c4a37585672654f45794c447a5865683031322f587575654b483937785a764c7179476e52517a7068687451334c6a4363393754354c53596845396170656d704b685865494f5a6e4f68673132717679774378327177377a64316261647751314868726e494e78334c354475366f78312b7030342f42616e30357a734f504e7a6d39546b3971665571626667494c48782b754a3974376c653764574c4c727164574e51624d7a436f6459754836654c75376172672b33366a69526a3536624c4f5074397270705056776754794c324643444d5547417258417265584947574d774e615845463259653532526d79496537315462654245674d636c334d513037577976674e793975785967306a61374468394642326e476b454b5548634e686364516a696358754b656f6e7739352f444d78426c3077693864423947306f716672614a63596f357555496e6b74576d6655746a304c775431444436624e6a4e41686a6147364d5475624b5a2b4c68636d47414d4c496c4f446977646c2f326e614f6951574c44434734754e6a32794b3263627376383938652f346f69544534782f36656550503576385a3861664c662b4138666572564d367770384c4b2b4e4d65685a6a4a4638424e4a30307750596e4f7a5533506c3937304847656d6144704f4d5665417a4473593072733766684c6f4c66512b5059544769793465354178614a497062664a53456d516d576c4a4531307a6b3456426575544b43575a56453871582b356963587344312b76502f384e6e724272635776786363467834394d48536d6536314442355146354a71497a2b3175386c344d30784e443351302b7a486c2f5875336d6e6c4d6934366e5455756d664a35354a4858545734326b5550364762673450595a774d675647627545386450674d4e34424e4368786164716665736a764659364a2b7656315273587633546b38784278324541317152464d71596e3578626f5871476a612b4e4675774e72744c5836425132447265732b6a577869716459476f4f5947724e5542626c4346685352534664782f5858704f6168492b634d3743454e4a342b55524e386f5a504975646a334b7848486f2b6b7559727358705962782b696a452b5a63443235424c4947454250545344633449596b4370665050632f3663662b31764e65726f5943357678795063636e4b73735146423839596f2f4a4d6e65657a383973426b467a6578426f6e57443175446f71394c45367367556b375a334a6d6c687a516e33477077676d6c566b74566371544934667739614b6b4172336e4a4276734637516532666a4a6e6557662f2b34343935626c56356f392b7166716e6e6c62423048704b4a4d384e774254326b6f635553786a5a564d492b54544d5663335862475a3636345668724a4f4a62447a485635576a79586677366559334734414457484b386b346135522f386c464b34715342704e444974536852546d6a6434566a4368416b52794b6e4a496237725649586a44356c542b45634e6c34336b4d7359594a6446666867374d787a477131435747562f687037416f2f44612f776a3745722f474e346864437a65724f78594b327132492b5564646a57546367365938327479575564423930696a49426269446d4a68687856464f575153545735564a464d2b31416a644c6a4f4c33434c333679663975646e3442623048482f364d65377a6a2b4e2b5034595a4d773957744a756a79554a61756b685851327a686f555335426f4877566e464465506e3644776c6e582f547568302b734d786f55316a426166364a794262516e6b7343392b64693972453178377149594f674a4a38623055586937614d5636304f377a504552746d6b69424777576e71536868717076716938682b657144797853753041302f306e614e545545452b426b315177476975644c59435853706c573178644337555a56665a6b6a3062717a7875612f51516c534c536a61562b44516870352f79615651616f67366155325358575753676d4474774670564c4f4474315772783834375466726161496469736d38772b53676c59367873614e626e394c6a7079446a716d3642416b646d30574677634c46655752504571616f486c5663456a6a6233554774326b4e59384d5363334343647158636b4762546138654377744e792f7475493257473855767a344f5949316b703468787364466470694d4c3845664d46674b447a4e557571457337543648726d37586d76724b76656a49776a5964586943746b734f577a35634b724470455a307476393336365841734241715077535642437356784d746c533659774c6a6f454b467751444e4b394d774a5463463757774b494f4b577a6356474d75666a556b35777959786b78396652306a676a495071716f494e4430465753424338567653707956647a496c424751375369475568554b434b6256594e545545336767784233314f59546e616d454e53344a6a6f4a4a383359724f73476e4c654571566243704858426b7142544173694743712f456a6b6a4d314a466a47546b68333553322f6b6f585461477543656e377a4c71496d55794437794c4746554f714b3579716b6b66794578763147745a6371347467357535534831326c6a5935536e56386a447a387163734d497a364d46454f6a6a636a695675776d68485865796e6c5a655a794c35584f65636c4c556762776e424c5656423246384a51796555697152493268557130475552776873486c4970717370684b5657362b616771564d5a716c496675354d4c3150454a6d616f676639644c4b515943783178664c5542462f33534d584f375a2f73735a4f5848387232626b5250426e4d504c726d397a433558626e783437384e44516c656a2b467072466e304b51697a56636755734e475962546930517037764a6e7a69756170316e5132716e7a4d444a796b476139384c6b4e4a6244587979726b376e4d4e6269693551427a476e644e354165637772476155305438754d3062476e567944485a2f5437396575333942785145464e5659326c5462786c4a4255504f5336714d796559654e72305573672f6c4d4853547a337047336167356d44696c387259456c57577653782f56336d67464c687047375a704f79304f764850524e72736d7931785a74756f3736597a687859484e4b6c3144624a386a31496534326130626d477a6e622f614879796f36593661616b4c6563714d667669333956446536493537364433492b6138697549466151456d312f304746716b2f2b2b7355566d55367248496c464f53704473354a425562727179354e554d64444b43516743527363666244493553507642572b676f616750712b4e42722b36492f756d656a6d6a5a4b7879594d4842676a4164397831306f59515176354f38354f6d356b76345a6877326b56796e4e7a49506e6e57732b797737654f6c614763357a613731637664324e5639354630473158733042334f4b424263554d54532b7877584661764f7965743244362b7a656f41566b666331547a39534667756261466d393534476238544f384f4d78654e366f7753457379476f657a782b33476d4575354a70376a7077666255413456383035764d3276424a55544e30474c4579516a51785a572b51484a6a6543506d644d336c2b4567342f616b69476a556e56485a4e596373474c5433466d746250485a61514c68726c717333364274394b5767616a50584b797535375a646e476178346737464135414f336a41725173576f4a573565772b4164544b7038574e497277445847724a4c64637a6f6972367a574565466a394a7569387064477531327671586c6d692b584a714745617567394f353265506a71726d4264526d34304c63695053796442777979764c4d454f4d6371736875474e6d6b5a41664e4a4258626f57362b58573559642b635055376266794f544754714a6f46727851547536734e7a4339753156546c72686b724f756f704542777071624351454962504478744e46766231514569485444305942584f76594846576266614f572b633841455a34737741642b756f6e73486b314d6e4e6c49744d4c43692f6474632b4f37504976337233416e45626f586e676679612b584f562b4e477261372f42756e30766346677450392f6d654a437136764967765570586e444c4370505658596a7132433431473355507330766b6855514f6b5545555863656e5a676d7a4135466979646777614e486e4c77594649476b514f70666d4a4d7048674f4b6d4a356b594f4c70475751716354777a6a59704b6969636777687350334c5151456f476958557845706b634431552b4278566c675a4b446a55724d49505157316971546f3850534f636a514443594846535a6c45486b784452346f6e4c6479637246415367614a512f424b654d4d59697a3845796f3938674b357971786572734357537565786835783841445a4c72445952496d4942494c4a656d7a7a466761636f513574426b733972396767303433575352466b33526f537754626c412b4d4e37554a4630795a645064596741744f735355514662702f6e6d4a546b64523255754a507a4d684a71707748696f71686c59654c69715679417952566c39377032756c635278485745316245527174355241542b5250456e36507a7335526d6e775a35756a444956377547744e73346d51345658636b515841593950502f4e34434a51427036466c354143452f546d476b5a6a37356b775636644f4a50766d77687373486d4d316c59712b4e3877676d7451783946574478537572394c4a4a767a446f55503835794e5858626d4b6f3765316377386366765655554d39664d59706975496b396f5a77435a435a737752584f597133394d564e6d7434314b637875415a6f516d484a492f773649317569424f6e70736453734264365058506848647a78374630384959376b447a3471314d44706b6b50752f4853364f32414b4a486437745672344471584150504c5247486d50346b58344558516769744d574e545567662f2b7434574b3468334232474968556c75657a347332566b6272367a2b6447592b6a687432716e744b45637a7731536f574f6a6e4b4757506954635665455476633651584b7346304d6753696b776445644c6b6f44383351316f68514a756450393659756333706d45685136454c3567637557507845304e666c595175424d4e62545559477a414b30586d647379656868424975796a65706a4c502f3056763047454d493867414a4a4a36483057734a366a556e6a3172745732454b4f3234326d494455766145444e6e624e535744743064446d2f574c4f79314c676a546b657176786f505943613967563266445778376f6e5578536475425664504e387244482b502f515167303171716e6a774f554b4f327838316d615a784f735759483431314e5a4766597a37696738486b356c5a6a3042444e53355266596c427a4d6254553574334d7948354d724f666d45324254722b544b32324f513072657359712b456835446c70757552426f4d4a586b434234673162626f434134447171325a41626e544c5635467434716a3252786a4c73646144457432732f415a49546b33764e633064424c303735786144774f5457456d66314b4653456666516c346c5138524238515456557866722f585049506564787335615244494f35697048334a794d316774496e6e6b5a2f67704e4a52704970636b7761383269534f31467672476b72365166504a6a3652786a2b626842443977616554776b6547484e782b39714868424e505873774d52424561627a32676237677972736a586b76685373316354696567633244784f33346c59797171477047796e717661446e4c2b6c474431376d52376465687273584f6436722f434d62793343536873657a4c5363706f474e34722f7a436833514c3372785431346134576c69764933396468665a4e2b7a534c322b2f466c5a324a44464b4d6979556f6d504b353569696a7356424c63426974766e724b6a6b7463364b784232476a58436c6c446d436a68514459704f6645395a66486151467534353654774e6936617074784e49446d3072752f7a37414e3863592b7a6736556f674e4b6875755667656769586f364c396c4e417a52527a337a643633546f58767a3272744a31324b682b6357765477657836696b326c622b4f58694678757770472f7152572b4f4e4e36737451704f30614a476244736b424879496e6a655a757466646c484b706e4d45797179624e6130316c656f48374a6c746b512f66514a4b58586a65497951774136396e51394d487a4e786e4e6b4c4d572f2f48426f4c5a78704c4a554f7436566971444847385675335754454733482f4263586d6864336e6a6a49777851766e6a4545714e45534c3067392f58344e4c76754e58414b645442337177756662435248437a47736164486d6d555a71594c4535392b5061487a4858587672486554523841657538433567706a30453946593347776475704a304662526c32516874554c62423745304d4c4a3654373343795158497951667a6631345848796961696b4c6436477563546b566152577851673238385179682f71462b764c326a68416552755a30615268304956436d625679784670486a346b4f426c4e313775565837394e48532b326d3741565957764a4375437443376e36426c354668416761746d4a593166546d556b795434554758637878443832434d7a474e54726779427a74382b536d753462656649716a7456712b4163692b474a2b704f55572b5441615338616c796c624c5654505734303862514c637a43624c31485444732b6e4872425a42636e45614e6f71386c4330556158436d4e6c6b616c38783274733734504b2b7435777845484b7263436359763157694f3764634b4869485674322f594641736258626e6e53584877434e596c344f51777a4d346357622b5a322b72664b526a6c78784a564b372f6357343755726c6e4d356c4677744e4e7671773254322b7943356e36696e626a484158483630745377753251326655336e5a316e7569344661687a564b616f68576554495966476a7568557134335a73413363536f43646971576a536c6b75566a536d374671787a574f632b624b317637787a78656b5156733450524b2f565068765677614d47683364772f504c6a35666b716c4533573063394764734b6453307533714f6a534a746430476e6a46376a36636e364a39543037424f6258327348456c4d6f614e576f77314e2b37427570504f366948753278744d754c372b79764831427856773175634b626735386e516464654b475156666850676d367074474c3358336d37766242325a57346b6154495a5a59686a567779564965346a6f4749347964723965334a5641554f4e4b55706b61664a6e4b5333416c4b6a644276417242414e794b77794e4f62326b63334c4a44744a6b51452f616267374e47384c585855476e524b5475732f68674f6c6964757742624f61304646756c4332795977395047596271654a4454485a655141652b675268533142574e325968664f7064577a575a386f6c6355464a676a542b735a6371584b442b6d4c7a6a56425033544a30585576625535652b394c6d36506f5a523237794669514b585836776d7a5778387439746444416c647668695a58497050464f566633367879544346314d6d6579367873386a434667482b4b7461615a57384b4e7375706f4e7871567a617835563848727a77794a5532326d374547642b6c4f326f45364b623552615156384b5973357554346b32577776674c4539467367684c7743595057363578727656434f7656634c457774416231624751396a4456665842636f4e5045544c56536e2f314b5a7044595162794b75786243557975684e56525a362b566b6554516f36416773524e5a506a34736437657068473536496231646c646430397856463432634d64546e4b3462686e4b6178704a5963306c4f746238496f69794767466e5a37386b4a514d7a6173495a316a665058767a38504945453346364a79616171716148435339456739546f57434845616b6736376735444752472b636b4935536e474142395876344a6d6548395978784c74494f48444f534b534b7539345531417657474877756d7979475653342f714671376b384e547a643749787a326f616e6d4832437855375a7458466763514236416f30386d463774707a6b636f572b452f515a61627773495171497870683050596a64484871652b6649382f55534178626156656532794a656e35636e5a43396138612f75344d74576f7449626849496d563134756447777550486c5449727278562b556d656c6b4a4e6c304a4e6c325a7270646a4e53573962465850586a53614e464f63737165326f67774b4e695744686b325a764e64544e61736f30476a664541564d52566c5554456f57465a4d794251576d6156596f674f7339632f63314a516d536d6a4c494a456b5a624a4b6b79616b776263744343475532506930525643305a4e4251346734494354393778535671547a734a3845354745702b32737169585476414a6e6d6c66677954733753577653575672395464395a5655756d6551584f4e4b2f416b3364326b74616b7339796c702b30713638673037576b37584f446b6e52797648656b65486833684558686661372f47736d6b4a595a43714c6f4e4d4b6a324456797039636c4c634d43496a6249543276446374754d47464c4a77797063334266573151613853307755655a556147624a612b4b6168774f6871386a333076677274336d58616b55466a567a4c684c696a45585a532f5079343636787649564e59725862727a5467517243492f62484232356179464959642b2f5563656f412f6369386b6848767045496a716f383171762b703636526b797a61536c745861316564307a366c3657396a57384c37723172775061674b6b6b56314f5653766f2b2f396e31544b4f754a71697068765366386b387a3146765073665a50593638336442304f5869592b65504a595177486b3161494d32394635424f7446544e6e736930796b64702b466d76623855346e74494d7137616e5a727557576675386f634d7136756441483776545376512b3749587a6e557941745839566251643276495a376730784950504845702b4c4c5532364d664b2b707576644655507a5175372b57356b7373334472513547517a584a53436b4b43776c4b772b654e5930564f54704d674733563146413173435339366934462b2f2f36736853394778397144693564474f3149505a4f6342355a7253536a64767575526272623243694678583373536377714d577538366d6c727548714d7963526954522b5536654e535355666f4b71636d626b344b377956364f4759516474376677492b4771474d554d6e5346553669714153696636507168446c76623579646b2f565831597771732f4d55366a66527a2b2b33786b4c6935464f78564c397a6c5177314c353363374f6334657a357550696a4d53452b2f6f675578556d6f6567792b64594a414d316a716a4b686b6c43467165797a326245595143797a59522f57726171734464337550507664616a77624d395367703850437a32413755594339394576517365384d4e305676797a326a6f2b374e5a50434552736149322b30764572536b2b6e546b366b7571504e72634f4b3374374f2b576a6f31392f7a634c6b2b56473166334b2b6451482b4a5a762f426f4b4d78533331506475746e2b47705662304c6433536b57774f6d38743236387457324f7275347444694c445a72636232316a713479444c4e345356524b4e6372544d6c467074697834356153774e4a376238336f506f6f77424c4367434c46547a354e726171796e34487a684b6a7a30367951466d706c476c327a754749544154747859576c52514852696150342f34325337334c794e4342615766794e384e5a7841313054377a685275356d435143374436716749324f437a305778306f75614a43314a544f7a727a674c754e4b3843364178656d5a7257382b492f71586f6f4d5950516141555965726e5650784a4e65564a4836614f57693549506f54554d42346b766c68536e364a485651716f6e3242456c5877496c655770432b596f73754c59525035696958526d38546b4f724672674375366a336478682f534270774f362b2b4347327453496e676e5a7a4b5a5a7377546e7a3847596b66546637686550666c435661694d336e6f5678766f796d5073416339684c5377734c4a73466167305143617254685374506a2f55567844685164676a794651432b763663507869656b444a6e2f306f69712f35486e506d2f72314b52344a312b4536394f524c314f6234727650424633714569476b5a416f2f796c5a4975477434554e386864655857464b7a35647a75525042626e35414f4b4c477779696462555564546a302b46574b4b6e3339532b5034576166347279576a76396f4b6241465873514c6f59682b6b6d4f39784a58704e5070437136454971386d42364b4165636e75765863485042632b666977694c4866414f63745236646b3535367158786842613748736d696262573955327866566e6c48586a397a332f4f795a485536636865744d5a6d732f5a343833716e3345423277657843315a7961566f583141445334345238446e686943574264764561494e582f49366c4655697a735747424e62414356654b7432567638415a624855496832444c6447583649444577552f737a4f554f5837667235732f4f43592b62635463364a4c586c707a385a75344a68526c495a534b4e707342364c6131576d6e63612b6f67713145397a4c4172456e6e65697a44412b2b2f5a6c4379454839744b6d6965526771645a4d5552715a795573675048556b762b6d717139664538456a7742666e2b59725a30733136616c3674666c4769667239623861396135697933736861436c61743242353039324a455457744837315231617637512f493034576347674c416f794d4d747a494e4950706b62477671576a45516d756d4377713572437a2f30713972644439636c39326d364c4b78626b7a6a6542586d4e69674371704d6273552b7573304339314e6f46302b6c34724f4f646b637a68643949736b64774e4b6d37466a524e55664e675a63326f36735553492f4f4d64486672454d49704a4d68765558766461496e6a352b53426a6146387a314a4c533076724479575a50486e7a62725151305330674b54616a547171546d775957697a594d743947424644674e514d3233656d77777a59304d687932696d42513537704b517a566632524f4b4e487241736c3933683734764f4542774f616d653132735931785446313651704a39326d374b69554155315375515679676d7a32454e794e5967356d4b4a6278306f4a307673635150584858417038537146357870396c733457306c5848366b6538687349425072496346736d4b70692b6b6353754b3851304a366e694a33767243377030675975424151656c56595756726765306c5843655555435055444e4e767379705432797a5a346c3879624a4c4b42786431366e304e426a6a39646575725039574154735455544a6364515a424832757a6d452f777269754a7236466e3964584678382f65664a6b615845464d6a614a73675872314535507366696f7a4d6c47796271705a46374b32764c70693777614c444d5a627149477a53727537394d636b514a4c4e6c4f4b4e51727447496367616e42486b514d43566f476348696a33636879434c68576945374c455650432f61454167575630702b7344362b484d356f7956677a4f4835654f6a51534d48416f4b7a70495a45325a6934627a5359797a4b6954702b664c5251516848576c4874306471693045777836516e4842796e47384f2f4c6b6a36462b375462506e47323576533067544c4c313179354d4c5442624c42736c4f64517067664939324669305256386e4a4a653777384b655a4f79574b595031346569626c7532324b654b524c46466e4d5243342f3546574f536369726a78395a565a796d717167397735697579632f34794f354238632b6356646b76476f6f4e72522b395938665a4f706a30796662794f32316d4d5a686358466d623156796c71633935763038544d6d6f52394973544d3832757547302f70474231524f4e755769616743316b526b375272674c476c753369375558396e6b2f447256543143564e57716178323049356e4943765550784b586d5552734a64456c4c486132594a5261773276342b6333796d67727579416c615753314a6d35544a4b2b4f6f6c37346233766e4d76645362594a4e556d67756d6d39306163527454356153335545613841566b557255556c474c64482f56776747744152496f6956326474714d7a49766d71485a4976754c48616c4b78385159716e3348456c553641704b4957646455556e586d4c477955395556546a70644f72426f772b636e7369352b4869437065655847376e774a5076495a6464506c6c326f514e546e326b444b52477a4f4c31634534774973727531686e4756776259337830386b51546f6f567766667053485466365173636a56516132336663434a46675472715568724e54365554506d78794870744735546464793654745a596762515a3941796b56326a6252394f52325a774e2f374368355a626351786d39463667664657574c4a6d56306c4d796d39666c766264707655764f2b54724a476e376130582f34706c35334675556467626a48316a7235414d4b6152472f5a7a52306368394c69526f66646c51514c4f6c576761396774526a30536d56456873494d58304d7a626e434f31737a724b79694f57674f4d57584151725054426236326e4e4a506b50767877757a304732494a2b546b7830787959644b415748555834555743512b756b676c78464b4e3351687a384b6b555835447a384b616f7a6f3236505070736353707a385331566c46516a62356e757a326750487473552b4353554270306542714d374e6a562f3744596130455547496e2b58366d6669506a666f6d51786d7a55366e723143797a6d2b565843394b475543304c634f667748644e75746175663672686c73434e7a4f335454366651666a2f535344452f63444e786f3341724f556f6c2b365175623670367470624e3632677531354c66616e586f7945763452746159796e65304d4c6d7a765377734c4d70776735683432686d684a61546e3576592f30666268364955796d445741487970414745476c3841504d78376963706462684d47354f5767486b55324e31375839364b76753173766169734c737a7676747263334e6c61585a772f654c583973724b364e482b7756316d726243466c6332396e35784d5339746665726935784374734a384a584c78337a70377366734c57446e55592b374d6e39704d756850584f4b576f74506b597a6c3672543675374e3341346f4c67783433784c5a6b32662f6b7a39714f30444c43736d775168436a5543317448306b67496d68614b3868525a554461664c35577741384f436b585065356c3846434d4a54667162614f7754415456446d4a6d5141494875736d69427134696947667246454439337a2b5249634a32506470453330784b576c335039464c6b314b4a4a565330676e3451614b50746a414b6e34323644484c42655539504e7168307074754b5349376d2b345354304c7646437846556e576a3653594c5363364d2f2f68443036652f574d51327961465867342f4d49565a4d775277494c7764514958307836724e382f544876616138415a5079773431614b77497a6e7174566b336d7041596d2f575944506f656f4a5a4177652b4b6139444a6b2b424f62536e4b6b476452704f7455763335466b374d357154314549347450664f636847337361326335494c56305679786c55664c6e395445453749774e58634235746f712b4e73654276336e61324e4c4e64416645776b5a63445634652f7544664a49457741774f75614b56312b61303354496152536b3342453971566f7748576c39442b714c344f6d6a78586d657043613344674a763136303654576f424352727451532b6a6743505354714b76694b4f32795353577579642b5359362b6b2b695835497262362f6250546141707254472f51314c73623778494c7275494841487871576765464a426a75723937734c573772617a4f554f5741433357667a6d6e52536150587333302b59352b54314f53677175483942753467696e4a4a6b332f4972566d353038584449694d42563672367173795539486e386d4d313668596667494d2b616576626468546b38714844564353376c6137435656764554676c39755a50756d335237613161634176345a4a796543586e6f594f574c51665a4e366c51366c46683979553979474c345a716179314a2b70715a576e2f702b535568756557525745615131434638706a676f65754c5961314d59677469307a456146743662474a6e436b354259475a724754334e304a6d2b363270553748556766424532646d764d476f72474534586a6f5a6e5878567158676435333559756f6c4f544730635a6d626748367772656343696a6776666b72795a4d49573748686248337058344e5646594f583567506f566e684752517a304c30736538462b68564a4b30587564704b4f7a527366636d704e76667965492f637a5a4530475647513632446c2b56582b32396856494f78696745624b2b76706530477944634a31364a7752582b794d736a6c566b41756b52457a34576974584e6b34576c7934576c773430716d6c4a302f466573524c586e46546552443255682b3771647736764e536e626972504c6b37716b742f77456a646950336e4a5454626455386e4c5638744f6f68794c6b735156503948763059726649622f5678333669332b5a6a763750636b704c457033354a6e3868502f5a4b55676478456a3072635243567866522b4a4a754878386d2b327661334b78744c523170704e2f4d736b6949656a6f3658312f663344525a4f343579637565346c7654534a395142317466717a596c494e3053736d6b624b5254624c2f335663716d5066613955594174432f684441354c546d716154427054565632624b367137764c6a3632566233546f436357386c7042534237626a644c6a78642f306c46566b302f423144517452624e4e4c38776e325371646c364c556a43516e47616c706c4f694954716e72702b35654d33704e487759462f3941645a6866586b482f58496b5136775036314241613734615a6363366142655379676f55312f705974326d6c6d5457317876746335795058486c58614f6d6665465364346c336455794d4c74766f5a374f4159446b4650524d6a56527969706947593650694d2b6c7334416e6c7a4245314947325a34657265337376317a446e78446e5757467a77577a75796c706d66344f353343556d74364c42584f35616b367657514b34555a3170685438505a5841363177726d637a655a7a717556776b7a374857673554777564637932477366413632484d624a3532544c3545665a5444354857795a66436d587961754a61433256797162374d58554b734f364d6574584f4a6f576430544a46654c59364e38304562616c434b57677177307a694f75736c6e6375536e7847594f43687232516d5963766474486e376c2f79732f55504e323165524a7248677353456647613630492b46585a566c51794859455a7a4c654f6b497a4a483239495a2f61566c6c6c3275594365556372516e6d555458624b35565a527a6c6e696c36796657766671644e6a36527453556c4548677354453561427447552b5831613772626a644f4f6d566f6f6230512b796d6f69756863474a44466230552b726847566463715336776c754e6371672f37552f627053626648494531576b532f4c62446b424e594f6e7a6f63777a4453785849596f6975306d556a54687a614254614d4e532f62794f6835706e4145784f4a76684250674c3646684d786349466150745a432f4977547067366d322f4770566334516e3152497575416e6372316e474838664c39706b76316657455a6c6d574b666b313244583235537174374c336665426c397337704a366951586c596279535053542b72664f554b4b6772554e6970585145784c6143475a4a6a6e734e5a3479516e316a6b7134556f2f66624c7741774f336b4130446f57585247636e75577a3564737675564746664e71617232705341544c4f695642623170782b6d6d4e3731454333347259423130506c726e4f6331387661693254524236575667474c6f70356d384a7879415374563353447856774b695431707a6258705779666b2f61485a55636d41337550384d74454e5a367267794173346c582f6b465677397554454d6c6f6a714275754a626a6c54425174685865436545773234574763764f72734736306c754f76317968584165666466354a726e7244425749336e4232536f7159754d4b46354953497034735877312b5847746d4e4f366c75684d7446643651334b71704a314f416d6f443936334a3762334a344e514f325a37325841344f3779444475674e572b2b646f4151584a65576e7770343177634c374d6942796436376a502b5a2f5a6553684a653473724b79614249704b50714a6a31644d477356444c303053726741394c4f386d576b667935555049333345585275506b632b716a4646306d4838765264664c6862774d6e3549504b31326e4b3547766f634b7353517733774e42377055627945743036706e754f6f71744636622f4c435178674278595a744e366b766b57664269395a73764d46645732444b4c446c354c6878393544684b6b747754394f5243324d74785243706b33686c4856304677344b336365412b70785845697a4e30514f33702b526f56746e702b4a4f367975522f744c39623430324a653547636150636e4962366e306b4a6f70326e766562714776706f6962314f393634665941646f597831386b7141323449466a3274376d536f346450677a62656659595037566d3941476b30644446624e6e53306b6f6877422b66486b7733727354573243494b6a45784f4453345835686e4a6e2f55757a466c556b714b64593348537732334569493362514c4b54536a75644b5976426d595073387a566f2b62424b41732b42682b7158324f555a6f2b4f366a33494137414278584d77395554396c3458766641662b37502f3858355933584a4e2f33416b41a2646970667358221220aa6bd49183338f4c3f03570a7624a743a1209e1f5a390573a1f1c3fe9c4d0dde64736f6c63430008180033",
  "devdoc": {
    "kind": "dev",
    "methods": {},
    "version": 1
  },
  "userdoc": {
    "kind": "user",
    "methods": {},
    "version": 1
  },
  "storageLayout": {
    "storage": [],
    "types": null
  }
}