{
  "address": "0x2cC709d5a1D3cbBEbf7F84BBf5Ee387551A6F32E",
  "abi": [
    {
      "inputs": [],
      "name": "data",
      "outputs": [
        {
          "internalType": "string",
          "name": "",
          "type": "string"
        }
      ],
      "stateMutability": "view",
      "type": "function"
    }
  ],
  "transactionHash": "0x77e8696c8bdec34f5110c0322087802ea100c58626ee4464c471494bda42518c",
  "args": [],
  "numDeployments": 1,
  "solcInputHash": "cf4f5b6d5eaf9388b3128a8b1a0f4f03",
  "bytecode": "0x608060405234801561001057600080fd5b50615fb2806100206000396000f3fe608060405234801561001057600080fd5b506004361061002b5760003560e01c806373d4a13a14610030575b600080fd5b61003861004e565b604051610045919061006d565b60405180910390f35b60405180615ee00160405280615ec081526020016100bd615ec0913981565b60006020808352835180602085015260005b8181101561009b5785810183015185820160400152820161007f565b506000604082860101526040601f19601f830116850101925050509291505056fe695371494a7842465a674e6a526844356f6161346365654c4c7a376267676e612b6878776847397a4d4757786d754f327a344748566c324f4f2b4134726b3358746a653276747935652b654c2b6b7833495769336c6c2b5436544f30645876373775307659634d57414b334246516d64346a55355036633272367675433152333938356e4f352f665756754632646e314b5561423551504e4c5175793069436e4238766650454d59764a32647a78746e434833597558313735347346552b53794e4d2b527939493853527466335031693634765059482b336f53584d6b633244755771656f732f76334e37657563767a7337467a352f5050747872474835506b3232796f6a2b626f7a73365857336467394465614932542b7342334f7449413474724931485377486a787564415a42553670664d4d363832424b3535334a326f55626772444b566d71646d53436e785976796f6d53754b3652396b55396a492f7243395564716b4f4748475561337441666b52716532484657536f544a434c4e38416b6c48317655584a4d39414b7546475655453942686c434158524a2f6e53464858444b47654b6333776d5641686c666d67722f5251782b53395a66706a6b346257514343534c3644794f783155493355334e47736e70513143735068495353314376774548304135794c5879556c634b326c6a7352646b726a75797858557a58436139643139672b434f44344b696a46504b4255467a786f6e557438633348556d497561746963414168356a4d556953384552483865464b574d5879426a664e536a503163512f6e643454564b6e72694c755143324e52366e524175733574717134706449324961306a576b6935306f517055427532515a334f4c376e686e384e664d4a677956386b4e344b734a3461736577493946566b7679334d466371524c4765733161764e624c53374d51424e576e35614638705465483747497962464e657349756665735779343776416e5751782b6a2b332f7331752f52556a79793573763848304f7647484642426b6d4e36756353614a647a4265455869696f6d4e7768627279636d796547344d56715271626a3359372b4c7269655a30555a49467747306e79774c2b32455638697a3346616e456d4c656d794d51516a6d445051683453414453397141587959694e3567586b6f4a78346a38714a305171546f666a7243544f4a3579423235424f43664b5438366152792b39434f695849587737424a2b47382f4e586e692b766e4444624c4c45776348776a6f624a416b535a6d666f343954392b304c324a697748584439356b416c71496a39566d3149544151617a4575377272695154676b486c5369706163464f616b6e67546b49367054372f3832434d7139473165594f71546f70544c6f746645777054776373684367373839706c635068796d4271564130527937496a616734714d4642597246324377362b66617834616a6d41354f4e506951635a4369675759557a6c7650497434384e636b4a6763317869342b4c6b344e7771484b5947705a4c525a4a6938774c6e455a5678497077543542396c6b4e6e54355855696e5650502f4d735578347774774d456972626b646678416544744841596352576c2b63675830684652656d50424a306e355a3655775264626b7136766b45593544585a3743595770647165665a69533645594a44573146414d724932723571717449636e68466b4756526a684d7253763137376759523054707451584a726b5a516b413174684f6c42775173514d6c6c55683075356b4536707a3038366430774a43777536364e71387a56576c7961526145534a72386a565838676559727456614b4c59755a335468474b394f6374383464302f32553052795742584164397546644571344c5a4e79534b496b5a6c4e4b514d55486d552b4e32416e6e6c573866473834337658484e52504e7256324b43504a4e6964486c616a4132446a664d474d58474f35724b50494b444f777131524453612b506e647a62532f68504d4773305770306264367734332f6d59317943356e717741525566596758466444493059684b43474b69494b4c31613845666a757449586c49676f505a7875594a56417551512b46394970515836776f59434b696331653031515956636b54466f657a5231794d70707a3539724868705958332b684f342f4d774d43756544515670515a46356d3034647769476c7750676d6f2b4a714f7342417364614e46736a77777349456b594a4c4643646e73557a6c67796b30486f2f4c33344a787855586f4970664564556a6f6c346e776c4a34555646792f657858774d75565575676634446330652f664354656a3367453849506c625a724130636973425468556867326d762f66485545486d72376278364c7a4c6d6450367a444669575666306647644232644245575733783277754b68333462616f766657564438387472695a347461422f2f3575754b4c57763975555845385a636a53526d317079587046766e594448496c65503261627962655072566e4f684a396d35754454455646366950524f6b31507930362b4b686c4756504f45546777526d6a637434353466637247655667746548437877575544514b7739477a6a5a69476453673447334732715247754c486351665569346b75482b4445334f2f5a305a7856567a6851657358506473474d7749706f5a764c516879575a544166456f322b67787a4d76714d3438766a315168776268734938782f507a7959327533787a62766d755a6d5943744d764f495a3053506f4835547244567578413334454a68457935612f426570597549384a516a586c44566738446c4836316c46376e354373387a626839314b306a59715957746746657a43736c75537479756476653745496673676d75416731787a30626d474a676c6178375777557831324f34734b4f3630512f787058597570794e395968776456694e45624775524e5554484778336441543352556445613957534747785a485748577259716f70796e596f69724d4a565734767543336c6a6f594648657864546c724b5251574142566d41465134416d4238376f446d54774d766639626c6a41414e3436713577746e4a546b596b62334675692b75494b443075534f71564f4836653079466b792b71346171366742686243745232314165367144595364746246686479757864546e44593631775a7870396d514f4e76714c546a364c4374734b6f53703777785545635772574a565a6862564f47775855635a73695631424266564551316c48565770556f6c4f435776544b513356477353385571654c44697430305174723877645558554c6477566c66526467494534743465386f7471694f69394d614374714e5248506379696b507255785a626653476b3555594768474f716943694e434c53556f2f3562794273586734787143456f4436326842443834516d467566574d5366386a336b456c4e68502f4a5936576953594d5948735673396e375056736c72574e636155446944664e54376c77583477544b59507544535971644152427231652b6d467166666e383277664632515250484f6a6b5a33676c54386a34715358642b3134445762544b32432b6e4937446f61736e7947364f6b6850546749487639464e336462466e657954726473396c2b61324f7a31634f5a4f54384774774d434b786b635646356465667039537662707a7076733958304c48676c4a5377792b6d702b635a4e4e7673674c33787652534f47533570497252307330747a78796a7969775070664c79346f5546536434783255774e475254434a6f6a61426334327a592f6e73367933386d4b5972536a577a63713475466a4a58704d6d53346c766351387a57456c4b4c42726f4177337a4b514c54307a6c6473527374724c62766c423164457652324e6d3750736e4c34544c5646546e575670645235486276764b6c32572b3451686275492b7063546461786a705261772b5857555471792b6349754c6371664466706f7357514c624168454d45585156674d4b636252345a6c79596c744e567032436a447a54564d416b32365668767969577a41487573366d4f6167734c4d4b2b7771687254474945725377597a32704c646533586a616f76596f643166674e3831666e2f385657763561754378444d6d355531764a5a4f646e39506c35533262516f624447762b6a6279504a4b597a344b653730637a755062485178696551346446566a6b7271787068584a63494f31354a4151696d4172795935494177445438684974334e367878756a78784b5230352b59412b6142716b624d76646b6b6a487774554d4533342f42694d446e5044756858395a79777a734c6c7344595868334f6247454156317256393043326239637665614e76382b4e7a46696d597a7a4d556e70675877396734303975676344616b4e6747417251474849616f444564686d4565576a523866786f4354776233444a42415a426a346a5562314a6e5a3765464f4c4b524642684a5a6e37504842505952706c6741594d664452374c6864316e34375a3443477953704a6b464562734f4e44507a6a50654145526652326652697342482f35754d7a36487564326837645649656a577976654c7142596a366a6234505a614c76737662714d477851742b4d4745644747487a4d336a485154466e3132562b4e713270326263534d534c6f386255365664687049475a75444953424d615165694b3250424a663341344f594c6e614a697a4f51656964646f2f73596a572b64377037726d314f774a787163507a6f2b35724e647045533167773273614f7578377353786c73464c52397637534466616b48595a63476530554d77654d734d4f4e394b654e394b654d6431714f4c757a464574426e443132594d5452682b726f33304d33513863494b4577345852364a3964366145557a73447a6a4a51536965315068325a4e416b35786778322f736a4e424a69456d4a6178486d53434d7656335144654a6a544f643569687a4d7239786348574d2b4c76717637487763492f466974394d354e6a507970502f713842685550684b4f2f495961576e32436e5a354d5a39306e75425470496e394368444b572f4f43745a70624a675158756d4d78564148316d47584e574d6e4967484a675758764145774e2b6254396767662b6845304879686e6a67326c745a6d574b737876545a6266644539734c7271336d327954453065796f6b45444165635558554d6839792b5134616a3767425045617a434c7869556e767671306945716b663754784434594a57666763706a457573644b4a64642b745a797146493175662b62616c303975796b617262386f74687a766c6c6b2f4f62615056642f6352626b32586f414d6d35624d374b6b554375506155766748687a3837454e642b6c7a706158513571735a654f724f6435474a416b6d486e2b713667436b784a746f61654661334b4c6c504c49544872466677725261384b5143554d5a6b465355624b305a345978627a6163726d6e45587653635841766976445a4734556f4332694a793259532b457746316372365170586b4265704e3842664f46754d7634694352345443464c556f6a4f45726b663455767a7154666f44464b42776d49702b534d4244684d4278523979415474564d72746655674766397274734c3172725136733035726f305657526b414377534359765532476e346e475350766262317151752f77336e3647336272564f3761765352514c482f59477334542b67435772765735777377657149454339354c39614252774e45304c5564436f5a58436456544c2b56715a67764a374936467861337769364732726f596f546643506e477961515737574275674e4b5372796e4f33624d3477445a636e35513032534665346c7041375765346d576a54657074565a455a5330646845676c38746c6c7a31552b697857696f7a7a32574d56614a2b766150704d5a4575515143786e546271466543736b596f4c4779504a486556564456634e39464571485042554a366b656e68725673364a4c664575336478583774343438676b3843674852344e4668304e6d6b627542476b677673747635597635446d78737a784a634d364366686c73425437576b5050514f427763396d335a4a4161343341474f51597a357345554247395671424b396f726478454a56436f49434d38347a7542657a484e35554d3353666a5a4b7868654f7931664e784563476c5a78783866414d3855314350564c532b557176694a52454847585079537064674977496d3531664636366856784d5274636a776351796b416c7747445a6275754263646d724158765154344671544b4768434f5847426778773550694f48567467526f30537734594a3547414d5751654e6e734a6b526b63495848444572313030792b674432752f767a49717347703857415670744768676f486f332f686f74447059474842536347476845766339592f5a3367475177734174424576672b493179346f614746625550427041466b57786f65677a4b624a4d42744d693345457155367133535066706b565a5831536c314a5a386d733771432f7145326e497638463166554b57387a39674f4d437151344e4d6a3868793463315135525331524b77536673756c7a57335742743477506d636b49352b7739742b6d4c41705a54346d35543350743065495a7a725736314935365969796f47484a4e7138392b5069316b644342542f4157425557363041526b664b58794567776448736f7135743370706e5235336b4679693230573669345832674153714775774965653044426731664239774f716951486b7543554753447836426d64343366594f476e774753623361546545546c6d69614a476c4956782f4e344e69587232696a684e6356497a507838555a786357766b664d4a526b4562414863672b733045304c516f78327076766a69774b4d5154707a325934484230643759704c686d483771674c346d4361424c45445833716977657a6564443249674a5859686d414f414f616d414f646962374134736d4363617a494548383853384263355175706777387369764c3752494c79542f4c446744456c716278654231574b706e6c565636426a79306467796b6d684464715432314735686257425032785246756646552b65495438712b3452517238344c566438715a57635746537a6c58492b49654f46784b556158344a366b3233384b3559674331526e6171742f4f66625632416655436733435375746648544d636e582b31554447716d75566a534a364a30642f5530467264324b65572b414762484554384d4f463239784e533541452f4a6a705531514d4f4e586e7943477133354245666a38635470736267333658467638487546667a6276574e71583251676a4e6467344d6f4e515445797846763359674a6432667474575953584d7a704f334f456e704631727753424b675746386570706b5373524962465273537a61475a754231653956574f5564426c34714e4b6b736246593450353259414d456275323632764f525978446a506a5a555553515a59364e484e3131452b5a31757356713859326857757a755778743944547a5a5633365658586b2f644f75516166582b6566784479356c39706d556850502b6943344b6168646b4430394b7345705a3574306c5962614761707739564a3968357258633841526a4d6b34654d4567537858386a57547a50646548626755795247397051514235426b5a42444d3059363051626b6b625967702f427932436863745149516276554b68546d6b794c712f384237676d6175397532716365727947452b6732532b412b6d42596c624a666c707a6b367a737857482b47584d336b344a5955536d5974794c39307476544f673257464a7a496652786e794b4c584779476b7258595932397a6345684d4b7443486578445644726f7a32326c77373342377442574f756e5044346448335a502b356e2b742f7237352b326237336570687376376d714e4d7a776633324a7667366f463274547472374530693861684a5a5a374c72476a54546e75417141432f4d4d53374f72712b586539506535352b3466756d7036315343322b444b4c665063725378374d735436385570353056754571777149512b6c337455364a555a2f4551554d67505248334d786e6a6b423857383945416473654a795947617958624b43736b456731516d476f376d636c78495a64686931705a4d554c3658374f5a32676e43346b6453344f786b4b5133754a7443357272343466693555575a3236746b43686466704c6a446b47622f774a565557745173694b6e314e75677a686e665356615a303153502b76684442485573767761696e75454b396132306d624833313168484d5a5076464e52674839574f3362544a3357626739336462456431744a717a6f567a4469434330444934764d4e6c627047324a4b4c7235374d744c30726b4c594a4c64756c664b6c654138324d63672f7a5362676b6c4e2b3878586b4e31464266737655774548415830462b79397651395873744954526874595238664a4435416f624b4f434e394848412f3651734b2f64307a61472b5a654c4261624477736c53412b71494b574d4374326b736c612b6e527851545a44326b556d46683877345341446c4c384b45514948786963424652394f556a352b6c49393458476961624d684d6c4131317a794e5173565a304b527553365a5651705251496e575578672f556a456c316b7971674567375277544f4161356a637a4a50526c593449386b326c6d54586e634a7946777a6835483175514c4b706d506f667a35353332496159344a777a646f567868587a55553467646b5974556959326349524730567565724958366539642b4d423648315876707250426b6675647072647267547946424e494b4a686965466e434d4643497134737a5075652f6279396e776864577959586b4a6a30416c37776d7552657461524741584c495a715559684d5043626a39783454337767684c7a516d563049744e6f72765169302b774147515154754663596779436451434d4f584737502b74577a2f795253597363614172704572676b6b6e57486e6f444c757938786573384e547256725566464b6650534b4d78415157574b314b775a4651644f78764773704176474b58306243346a3853535951653154443136386e4f324574546c3262366b6e7136674858693657453452424c762f556870304a69662b4232697964684752633479365a793579687454467a6a773449534b62617a305730426742796a533079516834776b63685a6c6f6a57734a422b64665a504d3665366c696d7849703154794b77314948777a5349715536746f4a49476e573135672f46397145656e687050797a492b354b785a444e70614b376247654b307a574e7330584e634f785166414762674b46676a4a7837426241633757534569746a5a3066533148796e48784e55655750577771524b2b39714958783736386269674351676a775a4f69715571636e46635735555942685361645551647432373170524a79796e386450474b78584e6b6f72774578386a5269362f3956313639386854514f6d624b4e677971594a704f4d4e4b387437413870766d61444a784137394a53537866697a4d4376624b344d694334676b4b3671796c55756757354276356b5a4d3761592f50343558387a35754a387552786532633944567a4e4678796a75356a3672696d4b4f4f75395059796769796b3832356c564d57714f636b796b374f6a684133417073424f77777861646b694c54546870726537325a2b46775033336f75706145382b43502f352b53315244754147704d35526d34467445736a724d66696d4c69396b717871495a4b55557457744d566e7978666e4c5165666f2f4f426f386353646466645a4d7658644441684d7779323449746b74546b7243794b3551792b506454544632546b39336750374d65396c50735959643938334b6f466b453167725735696f6d767a3334594856764632734e6d4551575a50503042376973713556306975415167475259707942664a53413054554d7a4e67456a445a2b753663564d5731657173715a334e6464384e623261773054654c734551616d617438644d4155506c6643676f36615072624174494a304a6a553155564673792b324f6b31326a4575474b5246536c6c70426b52436c51706934687930765a774c7155697846645a777865384b6d637078345441314d712f7a2f356d37457259326a7954395678513236355641594137627955676f504c3653654e5a4f5044347a775379504541495543346e6f414254622f333366743672362b67354a324a376432657a67542f33313131336458563164586165554a376c592f4c647853705a3857564537506a2b4c6238506e70306c2b4633317257555a6b71704f53544943762b4656524f357045496f59687a754b533271636b4663446b665634304155756d3842433254785a5149436e4a317369735072583776343663653354304f3333372b6345492b75305a2b465631764a4e487a4a3545624e46664b66366539667248364e584c67615a52595231534f346a716774514f4e783034324c6c4d47504855696753506c7a6e4a5069716e696e44656571474950665a536568522b4a752b434e4a4b7a3265396551706f487864426d38324c333245467a455452435a7373726d6555556f41637a48315234685a523270583569786b6d522f42674d70677a6e4b6475766e714f4b7a792b5879724744344638555251572b47597376594a6c4777482b637758486f434747324b706871494354436b67326c316f74492f466974675175787948655a4e35414849796f6458434a71454279315072782b777941576b475930426e58613053436f6a7a6946697565626c49396375586c3775764a652f664766552b4678776568524235762f744631514a64504b5546702f2f53622f3854693879587a54515470726750354352464e7663594751306e35644c453566445238666e335a393662542b7245666865506334552f3373452b517172512b2f344234425761354b5768724864667639724863423270472b764568666b75466f6a2b7a64535433356557342f69357135544e346c6e3531474b6f52546365614b3747323930466564576b516c386141336b61414152586755565844496c507353364a536f2b346731525632656448485258376f62715633556447456b536c4f47746a356b3555714e6c51454d6846592b4265484c6a4a36416b652b664b4c434a31656274702f6b705656706732443839346e73472b6b355435484a4430676f314e483474457836312f6950556b745977545552626b3144333050734f77764452704469396a64502b374f4b4d6b62632f6676512f56765a5752492f6e6e447951653646543739656e39625036636630433267734a47434936455269346533703644747655773036374134754158366354526b6c43597178734565724148686535764366566c516f644239556c34547832536168394d436e4e2b5436384577354d536e4f2b3068693274475331757a61416c74722f4749476557535a3679516f64736176392b56395a7775667356332b436f59362f3673646654654d335a326c3732595476565534614a6939702f656a7a576a2b4f3331796b2f53615a334b56547268513764755439673873753039343461363932345469467644496e6e7a34563674794a52746836384c67464665754f71507965514f3864377048646178776659797068546c43316374492b372f566e6c6639613630473677636466514f56707631774c2b486455364f6c352b685838345537467a54433370366e4177434770573758552f396c745a65653257655a5a35365351476a7834425a51684850584f4a4631652b562b776b61376254366667704c717466776c58356165383343635739576553555a7a46715a2b5630373456613252353076624f7537414671386161566a454d46732b77517433734a71376a5a6d30504c526b55494d454776725853426757442f635230374533384939337033736f594b37732b6c4238726a5a58656f4e4f4855516c3444714766794770546f33335a4949496d6d6d2f456468776549574d5037764b6c6c664c306e6c35777a76716b34464e49315446337771725259467947547350785971307973492b4168732b70714451372f574a6677374b574d75567553664935595763526974632f4b4a307154703656702f615337546b39466c52576e71326179615a4f417a536a69443772466e4262714e317966547653474832654a57344632365373735278646446395930776e394b6b6d7756645a325376766954317a324c687733474d765a614671656d5452714c31546e366a7358596a6d3373796e2f306e6939525a6e6a53777a7278645a445858542f364d417656797a4d6143436c4430346a306f375549596b6e61784b4f6e74487178535a33524d392f35706a616f6755397a484d477a56374c472b674d6f5658714865414537454c5041727548386362312b684252794f466d755448443034795542374b317334333230626a61722f3167436f2f487a31382b656672724c36497a36753975677369784a576c697653504e6f64562b6131334559374e644e45547674396b50614c586d7a4b54594e4d70456f7a36546c68442f5848356475316a316d38474f4155595871367841384772724854344c674549625359536e2f694f5754486333513065596735475a524769666f754a4c4963484964374530534b434b5037734534754e482f496e4c55435541466d3549736e71616a36725670686b5878472b643932393759316962576968743236594f314934746a72554751784747387863646e336359706b476332707a6f61386159794877485a71314468544c6d33766c6b474d3434354947587165414d6f74723070625670363574786c522f785946485249484b4f776f64317376664e74444656397a727943555458452f357850714a4e656f49364e77767747596c3979796b51652b6242613537757a70716e544649412b53344d43776e6d4b51774b347937726b434f6a7a31366a56397572666a4f396459764e772b4a746261307548583059697a484348353336426138344c4e75514c5a6b4d44392f7843774f6e317543446a766a44475735742b42524468646367702f6545325550693255576838337239595376736e5774756d454f4f576a307876576673306535563877696a756f41445a6a7a345a366a324d6c5237747675792b517a56334f7458344d71654864516659776f66373735797452357a42376f713931757639683866314a2f537675494636723359396132396f4e43686568386d795366374c7a41323668536641583166334c703161434f6c76476a6365415a364e473638714a2b4263577338786f487a644b2b4b42726671462f49646139364854424b6a67372f71303175334c6743554b2f376b7645312f34453447346c66505777675838386e423978416a664235472b48443365664d68345563366e2f3248574a65415a6e35536e754354523630712b644f485748723738736e756f2b595466446e63494a683262423376507a6e59674a6d747255302f663170654a36646c627979734b4f594b4d544568794a716f68394f43314b74626d306b6d4231466d5a7a58783776584972475934733376686b51364d476e7747542b374341716176312b7265486967664e7856354d504c6a446278504c4c78394e70433439486f39573951627243456a4b695665657262304f75386c794459794c67774a6e317169625a704e4a4b525a4f557649456530664b5842364e79426a4e71334a4a2b7574747268536d316b7a376e68546e4879387238484d62627a574f6e505a2b6d41307043624f616f58755364715155515a636e6c46317652587a4b412b434d342f5371516e784d746a614275515379446d4f343559524764305a53534c6a39683758392b6772735068484e7770356b66714f687167586b65396f5165434c49742f524c34683959556131412f455a4863512b6f777877343378476938515452486b6e6c2b42636e4343573363596659362b386738487a555a6447305044306771414b5533653855586b4e6739616f4d7667457173737744416f7830753474624246782b3935646e4e6d363075766246703442536175396332745432476c34655a62483233424c5466744c58764763352f59564a465534425743365234664c6776547866744f654d515432575639694b317a424e774269362f7654343937515076333430517176756b66766535503446633657733737457563703141386a514a474b75425048557338496271482f393067516b745139494c704a4c61344b35304d6d4a4137334b3953417441655971486c354e4b504f47697567552f7a747941547851696741727544756330705765747662436359332f784f56426e70342f6765317961377761696a652b75347477567a3744534a5470423065374a737571796630486436394d58694d586469723734566234454c68513847456e6d7064586c75796c6146624d4344484e7138424c62426d386641333643556e7a4b6635336c4f74344f7871346d342f6170326466675951382b364b6f4f5a42484937515954464c5263485646464d77616d515737362f38727249373570572b4d2b2f436d71654c49752b715437374b7441486d36426b61544455505643547939452f496b6c4f6772424f484276792b58586141346230396d675635536a4a4f78725669596d43647572795253564748436e4b4c50437a4c6d6347797676734c59586d577a6276346244457832376d4d6875776a41584c2f766e674c42664a715658554d5732423261335a4f6c2b686462734e61572f75724f594d397730647259764866483542465339366c5a6b43566c546d4f6e795932724c73327a6535745433344f396a5371384b476a795261624a3761544a462b564e716f6936425a34515a6d6f4e69746a727348545442783267506c507459612f644134323139456e484c732b665071566f386a54686154563162566b75494957466e4236307734516e6d4e52392f4d69695379753435452b465474574e3871685a6c76575a46516979476c336751527177332f695850776d2f74304a6a6751374453545831463068466173724835473744537757442b66385543597067774e73345362763062786e6174584f586e743331485065725a7775464f5a71344e45305537624c6a74694541306672497349304147617661355732446d52494b4b64435442577139366e697938656a7854397376376a39435851786864654e754464556c332f563968444c70532b6867484a4e497537594f6857436d7141312b616e324d5433574961304e634c354b6676564166536432324855445630626f494a76314c704671726a7459477943307562784c387a772b58427a5a435669523972366439342b6558392f326974472f4e324a3375304c664455662f594a54364c69734c4a587231507956422b49793778355750714c35525176536a4c734f7355594653706978445742426555586b4d515a517751583142536a73754e69763337782f465042486936674a3974584453616173714a6237626d35733656486950494d7433466f564b3961684c61656a4875682f70394477647a7478455677416c6a654f5553516a736f3030595867797a704873644d4a4a364644507a42342f43683679654d316169366e30754d586e4f38526c2f6c3030477145425731486e583734444f73315168436130526578352b376e4d4155315355643337716c4b53384e4d69664d43524f4254734a6e7270595230732b64394f616b56653171646e79622b6472747265354f7568623536562f444e53504b2f49684d6956447247376466663635505235503645312f3279442f395568724879635a696d4161685268544f79594935515255697837497765452b686b4b4f49684347444b4f734542396a4b38494e63677a5a533550674b78726a3868454c2f6c752b516651635847562f7247467872623243325a794359357538686839374742424f677934726241453476796b4e6c64432f7764706c7755354b6c2f324b61624b4945717741554c564f67615964437735784e386e586a3950594b4962567872674761753769425256554d55665648726b37682b454f545339614e7073757862544c6f3070464558356c4654725a71644f764f6a587276587a426f692b5656324f6243675273467a6b395a4554544c4e57307a694678632b4f594e4a48467a61424b376c542b614b45516e74506a4c6a45346f66456f747130514376432f30463365784244355448676c7033746730527059394b61656e5a36676362614576334c6169387952664d346e645a74736e366252762b393046307072434f39536f59646953786c4679542b616f6333774942307658683331514c4a4371476f69555438614f564c4571367675484e795374506b63562b44715a4a6574763853323661474c5755736759797342394b70704732466d4a4964516272704a4e38384d2b7446506b65487a6466383672693079366364336635395839532b75432f6b5077646c774f41696242514c437135524367716b466756637342514655445948705233766649645432394b4f393135447164587054334239635356464b6e6438486d357a5a484f73557964357755746b4f54436354754771697473553641444532414a6b7a7345693271546434526272712f7a67744771444a51462f743630536d475750416573334853437357516f38796652747a36504d5438712f515173783062446a4633764641504e52442b41726c42454f5a36692b496e6b65446f5351624b426868686f41525248795175594a326b43702b5545334c6c4d4143515a785773792b50786c4c70744f496736576545472b36446a46394a4d51423242677434593863646d786d4d4e5949496a76316d46782f4e6f324b632b434c4d76526f384f4976306c7957465775756358457a6a334454594f686631426b4572742b78424535425436434b6f44384d734744744e633655664a71706953445a59386a47476f746352706a4b482f41746e53533457336a49515744644e597a486873625334396d334d356f72585651475a6c4c514e644a515876496c444f5937334d66423067594a6261617863416b52413051625638333835515941367355435a31322b64664556527463486d415977446d77367568535571427446336a626c5952584359524458634962674d6f314558746773656f47396d456d6177534752737257436c39343832722f5036526d7439496a73626947624f4c5472524e7973386b3251714655365a7a594c4d564a63353267773854416135587949555538636b4b6c47723455673278704b39495176774c2f45417830315967394a7357447a554f484877616147784547696e584f5445775373646d38697448412f53557459444c387578496b307463454d695133526b4e61357a744b5a6b456b6b487453456c69734d7032553032795a7471307143534c553936324d465a75435a6d48586773314b2f4973787547445963573152414e7a72694f4e422b58456d744f4b4e6f4357326e32733276464d476d4843454877726e746a77476f677032534c55635259667a764c4e543565375334535a5672334e655276706e55765153792b5330567074316c517946732b5a42675479794a447278316734392f4d2f62563173566655454e55514d612b3057544a5a573541434f36624d69683231797a6d515277786859686a6a367374556a4e636e49494a5a62414b557a38636e325265503565734d78314d364d4b4c7241754268474446495441316877386146384c6c6770554952756843687471546e5a3754596e554d416e6e30375752595658304367436f4b6a797a52666b323878393749393963456d36365571426a367636774c64367a516973687934595a7978634632382b6163585831792b6674374a326c3532363750667a5a3239653764494a564a784e4a415652754a30695559453776484f566f394d62786a3454326b354652436430616f4b44434e7a6b6175347370414e354e366c412b74716730454d6b653842485a777171702f625462726230784a6c4469504f31382f667a304d2b534e335735484b636770354f737253306c75676b72567133524a473252444d63647275366a795234777359466c73692f6a517a63376f307354302b52434d6f6b516f47526d342f724638357563596f746e2b61765158316f56467335474f706b7861507a4d2b4b6d634d44772b4a4b7835656e4c6e6d3558736d695854764663597a4f6f6d4936766a794e573952426241566a304635496172725178703853727236746b7970357a72317a7a346451544b424a63686663516d7838534448354a466e76655a734e4478397630634d65432f5741426f347045485874722f6c3963462f4f544c66765250727a39506a4f4a7a4f395441377a4a4363453430386c794b525469694e655166494d4d7a58423737725a576658377a366b5a4946652b6b49764934645833305677594532626f73462f386848356e3836767a347a64727161746d694633325a574c763978696977766876302b626b6d57313334424248466442305078397956514a4a55544f4278307568447a3458414f75314c5848625046337866446b5453517767475431535858417865657a486f55666c734d51665278686c3049635763595944316e724676514672415569573778644a38685778787a457230454f727158646a356c58314a6b6948794a79306e72785a6c67575946394a4c6a49552b715048774d646a385161387274594b50384164695a3930497761714955587968664935502b7975436f2b3777624853375641546c4276456f7853516232547764355159762b41306d4b6f644a6152324b4d75354d6a4c5365785246374a6e316f586e6d5a4e4e6c344f42575449776f75726c6b4b433651524a564c77634731516c4d6b5468647869384449385146346e53425450706a4b7a4275344348784b78623235314c7a4270706579707241424b382f51785145435a6f54302f663739734978374b376978736e4a684b456b54437a4e684346373363623235703376497739686c34354f4d78325a467434334944614c67383773515738677153507034684e64594e4b726f66744d7a59684c44436249486274574a625244436233784d4f434442374e4a4e2f6e494f487978562f65505a6d4e77483448475961766f3679667a366d2b4e5546627246736a4377324e5351765136727970783235717377633170634f447661374157307265713777386d632b2b3945584549396564697a6f6d6f687248507758416176524a75524e5a6f7748565735324f2f6f526c6d783452492f65376f7769584430562f336a342b42644a64646c2b626d6b456e6a724f794a6d49394f4974716733546d466877755a5a506d6b717664576e59447738476f3465692f4a784670335935396c745265334f454e4877794838716a317373436d436f5a6348546e2f4f67657058654841694b6c59474949586b4c69444a785254536c70497057485947344d5047474c487a6838394f31626270384c786e2b56706564452b7030544534732b5775472b5270394632374c6d4566706d58306b7457704e424f53513168706134457a6a357a4331456c537937325641475a4f307055743939335a653467314e626d724d2f7a70416a4a677343764e32422b2b542b77503278317250725a427a4b52734d74473254623348556b372f36676765357a626a57546964307875384e6431574732497a44526e42476e6e7468725842666d39747943446177344d6d3750614379782b4d394735583239686c4a6f4c4a546a696354486f34394d596b764d5654682f30665275596d724d7a4b30735a6e6f77336a41334b6f6a4e5976566450666f636f577853374f4d516f34536c79474e6d436e5278694e4f437a50625a756d5258553535737447456d44504c5231694138694b46585651746f4a2b54316c6d4c4b4e58337262674d7a4332747775504f31746a6d31792f4d306f586534536c336c72764153302f74656d704e6e3836575439644e6b51346747417779416b3759414c374c5578497338504d6d304447546f324d45524b4d537672577a686f4349482b515648467931724e4a49305134704d644966366b4f38456a4f67614d387965757342306f38572b35735759786c305554494a566136526f55414f4e78353659375637444561414d447531656876793979316137332f78496c55696e733358796c6b426f436c44654c4f4c426a716a674c7678364d77324e6a44444d5a547741672b6338687a334563346f7a4d726d706c457a4c487971736b4f344d47744a33626f48516333427a662f674978425748536175436d323575664375625a7a30494a77716651636e4464306a783046593538374e355a6b4946326c374b77676a4d68426a4b66374578514970447a4143357a77355249302b714546612b6b6f4955537a44637a734154506274516e61624b504e2f51482b5955733870517363626f376767735a5850774950316631512f7163655a696c33557769476853424f2b5a565678434b454862475a446f6546485673764f4a57314633676b467666663176344c675761335964426236386a375a776362687a3730424735743247546541456b65734e70653431514d443162686b6137747a68315738615136332f32314e6c724732636b2f306d3562326a587a3644655134377837742f2f75336347376478754e642b397572395466716d514a70424c686761737265426539506c697072357843395067487674762f6e2b7972503656305a65314e6e3848552b334170684e2f704f3854596877767332676f712f4e5a76336135573978707648363774763776644f4b6974316d34376d614c2f3475334446625266712f2b546c64382b2f505852576d327671425969714b48485776313331747472764e7441356255616e2f61724732753164346866582f79684e7639336646623054666b582f30686e4267503972622f327a2f3761372f3231762f66585672374676507733665046585176786f2f7a6a473878454543474f4553504a4d2f37637030392b69586e5a714b517751516563396f2b4577545956694c4153654950555352394e644177364e65456f305154686e647043717548736f4230487777357367486f5832347631596732514458523172794a446976725865414b4b66466c37444e5071596c694e4f6b426d2b6c797238686b4a46597936485137483169594e4a6461654f5445714d547a68554f502f7331362b6650504c736a38616863346b4a67765245504e5a55596f4c4a4146466c586955443861474769394976443745566c4349695549323261636d6a48737a594577682b694c6f42413669576238376433726f38337247527571424f2f6955797246766f646a7538446a6d624965495766726f4a695172394975564b514941554a6c6b436742706b4c4f594a695a4d5534634a73506870306a45554d76456d62446c592b353471624c6e2b315a4b3365414a36396d627578664c6d4f2b4b6e70584948493841734846454a357577444155522f757265736b3636763062584a586344784a357162674433786366614e6251347a615765446358634944774f74306b696f334d45447351377836692f6f4f6676317065373644655543416d2f4942375933436a6e417047596c6a61747735573531334e507465335645387231664b367776514555696f632f6970506833384833576f4861484c584f43467962542b34614549484f486b32666932583166685575616b436f6a4951436e77615851706a375178415565796a59444b2b4e627355346e7934616b5975656f4244734f2f756951754a446d4630586b3839623739626e7a37744c357975464c7a52572f37504a444d4b64315475344b62306a2b596e37714c774141614867527a6354596149694936344646763168555851784f434c6b367a5a44746d6f44504e78737a5531747132704434326e502f676147576a75373939554e66646137393333472f68545642773536434f66535639574a57376f6352567567657569666f62312f4374572b455a7a6f316a6265315852494667784f3434554267323044716c797436644f666f777550755031725a7154616e333333316d345a4f32656f777a45716f5866346c675269496739574e7377614359467968593344413341346d4748397a486a354b7649536c7a345777577a33796e445957536e2f71346a516f6a632b515777386561714c746a4c554d785a4d6b2f667053633566783377783757716458467631324a33387241704f355a38765534444e5459526550335949736e4d4b357959684a6649684a4b706f555647486e4f7877737a3848466f4f4631524746726a46534a5262784b565a424d5a4e774b744370476a534b7a59675358566c7746595572416f70464250554251384d757235486a576d6f334d516469354c3472416141385a71493164746c465172494272786158486f4b506a68644e432b5244354875754847524533765151757147434c51704c5478515456446a6333365931795a526c334e686239566c332f4e424c657858662b355066345271504671714f393350745866774a494344524b68507679437855454c7634546b526d6768557433454c37592f31582f7154734472505841494b5844735a38342f6b46496c773977716567474d45525862654f36685a5845416a78337557374b5667724f4a56366f314373784775545944454e6e6d556f43455a75532f4c766f516e4957704158674948745266357166692f7541346d747639374d51496579496e6b794a4b77647a6742704f666f4b552f564d347272706e4a577655315734375563524753734a4f44656d626b6e373343584672326a32582b616c675474616e383577336d36312f553651326d636d6d634c73656b70622f2b504854366b75612f64434c696d504843717437386d36387a364d574e7a686e714161387143363457356a6934314b306739396b43666a356972556e4348566364376e33676f574658374e6b646f4c3359765869617755686736596f4c6e79416d6c736b4e4f3735434d787043644c394f586b5558394d7a496a6545764f6c7a54735159315745464634594f4d37574449684967396452704b764e56517931375930534476464b554369554d33705746697a45367369493857626f344c774c447672716d4b6d49386464304e4d34544d49325374745834455a485445633564674443434568374663454a6a54717750496c70664368716b6731484a694d663546764c346e374c48496a6d314c50543337354b4b546430766e3062476f4d71432b556237304d5257536149546e746b484564676453514f447075452f4a49354e4d7a7855697170303038654843372f776f6a432f75764167392b475a373337492f4867393653644c47414d6f554769655675447332724553317a5a49595465475450454b43495046534f70684b594c5173657a655949494f5468596858424c4d6e4b7748746778376f6e4c58356f594b3432794c666d54394c45636a716d323373464c55536362533566547059754d317434726f56694e746d464b35586145584f346f6578364d6a785647367767492f66466d52705250686d636744704257793068706e466a31523368457856396858316431426d43356e586f4546533854567a7647624c6a69374d5a752f396c55444c696d6e7a7665744c59666c7157776842432f4258444c4233636e324146675a336472304977763242694d3942346f475045444d302f36716c4234476747645363545838393558667455674972784664465a5361514d544175374d38653374587078636e42757a38446e52466e614b5953567372317151642f706662537339316f6a54634535526e6a63677361696d32393553376b374456544742557845776430576355574c75496846567a393842743135484c4d3538446265676e785a2b7172576c4637577737544a4b7561686947664b52414a726f37555670624754796c5637505067764a4231676846584a2b367a786e6d394d316131587764716b7878444376365450516f6c74594f434347316f35437966785952657862314c704a6c49582b614152762f63674a4b4b58676e72756261363362744a62736369586b6579676a4a36727a466268744a64664a336f635a794f6865686776796f2f554d4e3779797776436d623745417038506e656339465768575a6d645a566a534f434c7649735a4654457a474b79685458574c675061796a646f4376432f6a68474946334a596e63427734766a36506a472b59586f6142637470493148306c336f6b356a775577507442684f4f4533534a35436a4e45795a695168386e7464372b6951566b4e7045347268736f51687a6445365468566d78474878653748515a656e69446e6b7879346c3631315246794838534243587a65372b36656d77304b66714e474332516b6851495a576873672b3839335030503031756d636b394774306a2f6a724c44357339665a6e44487839694f7149665833495876696e645251796c544d543235586d4a56516738635549662b4269797339615637623143414144725964384f386b6d4c45535a79714d65447a504d735446533477714458304c46315555575872423852417a45754a3249653970473557472f69394f4962795645486b354b79456d377171576f7a4b44717858474974457361637847357079705853425342476779667952302f5a7070664844746d514a5a564e434a446b3459592b6e496b6a6c5253546b37693044654c6a677962684a68315758536b2b6e385931503849672b375230574c33437a72436f676c454f474733454575332f774f5a4c69584b434e324d4c444b542f536b52527048346f415869424b78756e5146684f6765744b58354e6b635136536b5332435551664e592f52334157414f48624a787762414c32447943616f6a5450774a49314c7a54777635784e6a434a5a534a6856506249376d555266732f6e6c7450444843785963542b37445454666d4d6337446336305451506d644f676f394f4d73383269622f74706e764a694244384b594764466a7444707273333547545a704478526a776a7878462f6a52526e423932634c596e7259414e7556772f4e382f73534a6b7363554872525053442f6f332b395534422b69585741324761627745724f6661445449373735386649424c2f4b667535786a2f6f345a53747a756f73616c33585437556c79346167653537674841476351344a7a6c494a7a6c4f7637436e302f513939583650735a2b7237537670486a66762f716f506d5348373145552f5758727166533951395744655647703858716443343048434a7a3944395666336e46682b516c6a2b7944394541786138626b5148472b39513776754b734d5859774c79794c554e444a55526c49424273713244776768624958626c707746305a373153594c6e79744d307a4f6f5a4e6942734a6e79755163422f6a4d6b3930386e4159594c6c617a4c4e6f434f384950415559746b517039784e68664f5a426849746e6b324974514272526b55562b3454596a4c6e706a6d664d7a616e666736426333692b612b34746d765767652f77443265707547642f684b6b615065343838654e78616d524572454d6739703948476d6541517935657130334231436263675545686945686c416b4348545677774674507844307174312f41656b615457494352775a5a324f43594c6c417469582f71663059476c776871523034777732474570596654415777353842336d514e7758477a2f58395265384568732f6632496b667a457a7062306d546e43394b2f64416138316867776e6b52786644666e734170522f6a776a57484a4d514955453075444c484f59474d794e6f4e30706f3632756d544a395a304e4d586f33626731444c4a43593452326e674563785a7657364532626d38476a3245424d6f4f4a3937527a38676875694f59592f6658346b746166464c63544c64337435303058623557773356675456526b41774a7278672b5935664f614e56333779494e48794b734f4633476b504d6e2b307042795663304d31677268773142463061596b76747236375a31497746447650753978524832385177516352624f51472f4256667a59472f54476f41792b356c2f643066426c48784e2f66324a784d2b325436415664566948366e754d626b7762465357312b464e566838736d78304d4c64396a7976304d37664e4264756f366942343235704537785a7772754d6b6233307364775a634f34387853753337476f5439422b4655594e6245582b3862592b5939464b683659316657496a53456f674d42426332564147386463753734586b45676b6d466d69786b51496c4d7a446c4c754f59493073527a70494338354a4577355841585448525a4539496c77684b564f557447302b4f634a4f56326c7645497a2b62754d702f764848497250625132486d633251786b4d746f6363596333756f586a4b393669647a79326869787062316c396d794a6b4f2b50554a7775512f4763795a4a56734836784868646541533654364567396f4e767478436142352b4b596e755541726e4d51536d7a686f2b69666d474e6534744b68564b2f7379636f6a794c66455165435743644b634c6863707457784b506250526a2f7739662b6f6f7130585636524a67564463574c77775756744854325972354355703851364b78324c2b61574b315a5653435231375068527643545833526a5957623954484b5a7048393931476d4c5466647838452f39663439474d476a794c304445533962425844695a424430764278524176324e68732b466e5347754d52345774427847617236716762384978634663416d51387968797577793638577a51595a7149756330792f375350444233314535354c576a3972392b645141654a6732616a707679524e7346594f442b4f74494769414c6144657849364c444a4135357279497832676174595a6b41616e5067457a6b31776f51795845326858774b636c58704c5270634f564b6151687a6448546d6658664c39635076427764377669767872374842644171676a6d524b79706541615061677a6c5670726372754e4235523038524166757a61725a5475716347786c6d326f527333577a6655582f666d47543535355856704d6359476c4649717a5645386136724a356e765533483751436d727076664836726b4e594d30354f71646d356d644c556c5532584175696b75375470723342716c4f316e7531565351386849336237715a5a494e717430446c4a705777482f6c6c74662b71755775734b6b3064766c3644564957643454574c76376f3561716f6557575a654f476359715575676c584c713757656134394e524a3246314b564239662b614d5263745a7651707a6a6b2b394e4d514e6e7547524d617833637854653664505a686144376d4147524233694553536f5a494a5631353233446132315434343373494d71414f68442b5a486c415165716a435a593858754241414b7a7337306449587342396d772b38394454304b474c6e556b7959784e38386655774578676a4e47414872436545784e72446763306e3567764a4d734c63444739674679496d616d546d54793863513974377346555731384e7566354a42683852494d75507453696363653871782b334a7761707058305250596c486a31466d523737636f503378494b50753769554d507737523949524a755a5043517a672f4351586a4c324b61624b77535539504f456e6138466e7a4e2f64304368776f756d4e76633838344865574b62583678386533756a527676574c54785774323468445756336664535179426a3453696e464236336e615843347472694c44506b5433617a4933346b4948777a62424f562b77377a695948734c62784b58655053623667685a535a333149636338306e3248464147776f444d6635757839736e437941373546743676494c31314475304271307a6c3766416e5a5a6655446235574e465a6768534b4d723849766d6645707239574d5861715578326433635739397162483179456b4b41485362686839626d48705375785950335074485252515035646b304e4756637572456c6c4551346f547472486a35776e383347546b4a6f6e6d506c5246656c624947426268386377557070597345326d7066564865626252395a3451333132456a663238755157472f62434a2b426a7848665a727a4449613357717359355939626e434f67394848376d62773458577a31716c2f3038455578625130586f41746f423565323363425579305977624b6738384d55624a5a49744a6647304746467847504b686f6c326b5a4f35596a4f46444c6e633651485775587868675769724f64684474504a49744e5a3644396d6746363631337463616d66635458646573414762766665506e7870766b57794e6c71555247362b6e526c4e344c50344f6c4c5469516a48334672434531376d4c324e582b64776a4c72356f41594e632b374d6a397545653836644c77722f67474472537a7352486c5a462f456f445677693261354e716b6f2b7a562b72674e2b4959413354437951326c535277486c69652f536f6f4c4a443752424b3754364e49677a773367396f6f456f746c4d71694e706e57524f3673307056694a554d42356369695368317650466850736375464d7345736c555934623435556b773768426a71724b494d66574f53483467786e3767323245324946425a77545058374e707763497a745355535955496d544b396753486f6a546b37594e39704f5435336d6145544e4770584e744c5944473059574b78485658395461564c7063654672693331517649483666516a4837775644754968627a416f71317459744d6e4a41345a494c49424a46785838594568514e49474134336c7a5262684a596e7a4b364c625a4b644c444b617a766b2f614173774c49424532544e44346b7a6443672b5163506f45575473334246397056534c546475624e464f69716a74696964504b36436178514e6e42655067304a4457535859476b746a506d467562665442547556664361614538392b356552326d4e4c673645524538725071387732565956354e55555a51552f4250666a6f696f705158434d524c4639306841324b357675766947506b6532596b4757695452622f4f543465737a6a4a445035537853707878757138725a6154627971755965564d794d65684c437a4b797442625949394d764e504b544759426d7a6f54455942446655395a504936632b4b6e724d4c5544722f7763653361454361616a2f4561374a6f4d3061796f632f6833474a41304d7636496447696a486953433363524a416c327533616a78586c6e34334a766b72486c7947512b6f495374643341666c6a5631412f5668726c4f38494f306f637a2b323737326d787a5651534a7043517861704d7a706c386d336d7a79673062363759724a69344e5276416857374e57444237506465744f54735a6d46493369724a6d7335374d383974316b34534743385a66316b6442316557364b35672f3349324a4a776c3246796c765977715445524752414774596a2b783067625a6c7155484f637a646d5947784e2f45307177546e4b707547386b70673574577674316f65594544576f6c4e6650464d3861487a412b726b74576a51682f49627171525a6e4b79633345625545416e763973364857765471762b4b5a6d6263495a4465327871397a59454567456971706368634470557535375332556e766f47356d714368334e4156527634324a434376445a4373524c44446c67507354794b2f70746c4e51755836796534496951493443787a696d30342f7067565572574935684d6b7530554e6950417046546d4a53667432616e5943373759503167714e4d4277666267466174377a615a6c6d45376b6768507551473645447252627436775247595856545a62416263596668364e41524c50726c4b75554c4e6e584f784a5352735070415174685951354d69655253774965575956474343503773543763766a4c5149453078584d686975574157425234704e4b4b59744255424a7a364c5041476664306c536b414830754f486e2b624334564b756168437977394561306f597172314e6f587a6a4d576754477070416834784163766262706746546a6d4b4c5453686b586c7a7762306f556e52655737714c3651354a71356d63675577364c6d377245626431536c68776f556749533271663056456a50616263315a33724e696a3346696644626c4476757a4e4b522f4a626b4937444d6475323347446e344b7a625a462b4f7446384155515a742f63622f5449694b722b556c446f4e46584947335769772f2f7a4666474163524f666244454f6b6a38426c4276586c5a2b6e59734a7345536e6e4a6e573831326b4d6536714d776e7238353368577a312f674b45713952685047706f41726c724a4c4233574970356738384b615174474c7773306434554b4a695261724c4c564b6c6d7542554f575143504a6443456d4f772f64755977525a4a47527a494169416a7569586642546e307032737466766949656e685878676644746f6c32456a706d78616536387433364c4d4b59725375783473336a724b453851734674454157424461384871677874746163506f79305745663532317952766679687343527456735569614c66704b6c6a356c4a5a5479525634434534583347494478383577764d7961673435674f4349736b4f594c6d41753034776d3056563257752b553331756e64556835613356594e6e617645586b616b7a31487a4a4f7545366d78456547463677544a4639634a334f32656873795152537461494e79416b3032717475305a706d68306f496146734736463375522b76353846756943596f523276475770687937432b31657843377435635837646f505a72714b4a35543248376d303864505449635a56455552643551392f34744f2b316937776f326e386e62314e5747433959793837333967524f6643337a4732454d796e752f51524e52555039774d4448776442684e73466e71413749567157664d4d37513177784f754b4b515a355667357a446444476442575a6b414c54704e41515a5a427756724f6d75544f6b3974496c4142616f7163433834342f5a356a4d55324b4c49507076694f567a6a42643156776d36303745576b70687178634b455171524534313430385a41675832306775436d626d586d37665451466637795a6b427771425a795172336669446b74483250754258654c724c576f305558446e6b785465704334383437794452636b5a6136475852716e347958345653412f62627054526369756a34376b56742b4f6a31573046576b346938444576387232646d653265523865396c5862737041736f7247344e397149505335544746797a5262505a652b4c545269442f7764585467773079795657785663574b7558646e4d30546e6f73364c4b472b386c6f30474e7a6e35645067593463585467505330546d72376c3670565866745135353430782b354942504e36304750616476687949643644424b6c4f68453658794d6454583834674f774e38615736544b4349514937516f4869666a69306e4f705767714648573973674e44736d5343374e4169536c2b35464c756d394576564c636b4261705a6a4e355249707252747252394c4d644f4f386f6345654a6f6e4866485a776a673539316c6163532b466549764475313744527771583652704f555856596b5a66694d4232626a486d4c5857397069356c6b616b4a4f37482b454148303665514a4c625876622b7a3763384641594b6e4d4b666c644d7852593941726b537943674a6f6338775338593258767236673557616f534d413845777644316a356a43324d7736524c4e766e45436b2b772f6768554b6f2f685339394131304338632b5167522f613676725458782f787a664d6839444d5133435876586c364d474c324f6b69693746366b37766e6d42397270497278573671582b515268373268394e6a6b5141574550596946487a526e734636426b6a5855507762623452324a432f53555663387a366a464562667075425939304853732b704d2b443247694f7a4c526b5544525a57315a6c3078796d6e6a46312b354879794c6d7154716a473343765a75356a2f595877626f69697079416a70436832712b5346476e6c4b51356d55692f36563077377344707474484a546f69586f4236657762574d75326c31587041622f4c56487274616230483778516446466843544368632f4f4459624677387a4151367734733038726c626c616856494f2f464c4e35455a5673494475535a49744f45796934744f457653586c677036535959377565374b674b41646a4354346439662f76724c6f723630566b6c6e382b614d4a766733414366342b6962625a465964786a362f4b314751695a583642374265436679615a637a6b5a6b5937317462795873744a6d2f416a2f756d7077757742346f4c37394d4f467753427a6445345a51566f7a6c42764743346f615759784a6e317439786b3433436c6e6171536568556263694c697a3951696d7156632f4e7854695a693352475138416c784161675034595066455254376f6443524450565254474c58454b592f41733176394a716c744f524454475775475979597973613173506e725a46774e79374f682f4d46775566656a455868514f366143564c5849503433346f674366676b75323457377876516f3231454e6e76436a38335a66744c6b4a2b652f57476762757236504a47544b3874692f4f657030353850702b41535a506d4457612b493971742b306e43434e2f706943564459474a6b3961524f516c3241494d78325169666561707744674c496857374e30546e7747683535467864445a766f4663654a5846646e4a444255676467526a644b4d3455434a2b774c6d3537322b645174686c35304d61416b7370684c4a473875664f46492b3539735a7a47355330676469676161674a4b4657584f643851497a54546c586656466e5a72556f46487472614d513230552b644442776976456f4f337474707477524f5968516a4646474a6762626a492b5978616e633130412f57624c4a4132486f4d65584d4b494e4c6e4e526955705955474c6f636479622b72796d77454c484d4d48486e4a6d52644f2f4f3864644b504b514b55705574317745394f6f715a546f304f59496d36334c484a704573586d71684a6e5662777139534333304667447745516a4f664d6d59734a4d484156344c386570484d49426c2b3254784b6f4c4f4675642f3165636b466d657945624e694e7234724533714d724438796672596679707477634a30527367303343304d7a6376716c4139374b787872343073564d50524d5a673449776b544a74454b725757714c624d344b756e346b366e56567964725865524d4754415a557242626c4770476d4853716e4c4d676872304a6537546f6a5a6f70346d7a6570696d476f5a6d666e6e5a6e4f4b3469564c71594a6c613774365032515a54677665536e68356546a2646970667358221220b5e1dfb624c38aacf2e460bba89bb968bbdbd3509484cd7ce3e799715a5e523964736f6c63430008180033",
  "devdoc": {
    "kind": "dev",
    "methods": {},
    "version": 1
  },
  "userdoc": {
    "kind": "user",
    "methods": {},
    "version": 1
  },
  "storageLayout": {
    "storage": [],
    "types": null
  }
}